:020000040800F2
:1000000008070020892C0008E10D0008E30D000816
:10001000E70D0008EB0D0008EF0D000800000000E0
:10002000000000000000000000000000F30D0008C8
:10003000F50D000800000000F70D0008F90D00089C
:10004000A32C0008A32C0008A32C0008A32C000854
:10005000A32C0008A32C0008A32C0008A32C000844
:10006000A32C0008A32C0008A32C0008A32C000834
:10007000A32C0008A32C0008A32C0008A32C000824
:10008000A32C0008A32C0008A32C0008A32C000814
:10009000A32C0008A32C0008A32C0008A32C000804
:1000A000A32C0008A32C0008A32C0008A32C0008F4
:1000B000A32C0008A32C0008A32C0008A32C0008E4
:1000C000A32C0008A32C0008A32C0008A32C0008D4
:1000D000A32C0008A32C00084D2C0008A32C00081A
:1000E000A32C0008A32C0008A32C0008A32C0008B4
:1000F000A32C0008A32C0008A32C0008A32C0008A4
:10010000A32C0008A32C0008A32C0008A32C000893
:10011000A32C0008A32C0008A32C0008A32C000883
:10012000A32C0008A32C0008A32C0008A32C000873
:1001300000F002F800F090F80AA090E8000C824469
:100140008344AAF10107DA4501D100F085F8AFF246
:10015000090EBAE80F0013F0010F18BFFB1A43F0A5
:10016000010318476081000080810000103A24BF1D
:1001700078C878C1FAD8520724BF30C830C144BF0C
:1001800004680C607047000000230024002500264E
:10019000103A28BF78C1FBD8520728BF30C148BFEA
:1001A0000B6070476E2904F04D83702904F08F8432
:1001B000662907F08486652907F08186672907F09C
:1001C0007E86612907F07D8603681B0A28BF41F0FF
:1001D0008001692904F0FA82642904F0F782752904
:1001E00004F0F4826F2904F01D84782904F05B8404
:1001F000E92904F0B783E42904F0B483F52904F075
:10020000B183EF2904F01A84F82904F05A840368B2
:10021000DB0928BF41F08001632905F05F81732964
:1002200005F06481E32905F06F81F32905F07481FD
:10023000002070471FB505F0C5F90400002000211B
:1002400006F0E2FC401C60600020002106F0C6FCC5
:10025000E0601FBD10B510BD05F086F91146FFF72F
:10026000E9FF00F009F805F05FFA03B4FFF7F2FFC9
:1002700003BC05F0A3FA0000B4B000203190309028
:100280002F900A202E90FD480168FD48006807F075
:1002900007FB199007F016FCC0B22D90F9480168D1
:1002A000F948006807F0FCFA199007F00BFCC0B29F
:1002B0002C9006212D9890FBF1F0C0B22B902D9838
:1002C00090FBF1F1199000EBD07001EB6000C0B22F
:1002D0002A90002029902C98C117199000EB91705A
:1002E000801028902C98199000EBD0704010279027
:1002F0002C98C117199000EB917081102C98401A1E
:10030000C0B2269000202590E048007807F012FC4B
:10031000249000202390DE482290DC48007807F0EB
:1003200009FC219000202090D9481F90D7480078E0
:1003300007F000FC1E9000201D901C90D348007810
:1003400007F0F8FB1B9000201A904FF4A06002F019
:10035000BBFC00F043FE00F067FE4FF4165002F0C5
:10036000B1FB02F0EFFA0020C84909780490CDE90A
:1003700005010790C54800780A210022C34B1B786D
:10038000CDE90032CDE902100B46C0480178104695
:1003900000F046FF40F2DC51BE4803F04DFF642000
:1003A00002F077FB40F2DC51BA4803F049FF6420C9
:1003B00002F06FFB4FF4FA61B64803F03DFF642092
:1003C00002F067FB4FF4FA61B24803F039FF642092
:1003D00002F05FFBFF2002F015FBFF2002F012FB92
:1003E000FF2002F00FFBFDE302F022FC012850D1B8
:1003F00002F029FC3290329802F0B1FB329830289A
:1004000024D1002031902590A048007807F092FB7D
:100410002490002023909E4822909C48007807F06A
:1004200089FB21900020209099481F9097480078E0
:1004300007F080FB1E9000201D901C9093480078D0
:1004400007F078FB1B9000201A9022E032983128A8
:1004500007DB3298392804DC32983038C0B231904A
:1004600017E03298612806D0622807D0632808D0A8
:1004700064280CD108E00A20319009E00B2031906B
:1004800006E00C20319003E00D20319000E000BF29
:1004900000BF2F9810B93198309004E02F980128B0
:1004A00001D10020309030980E287BD2DFE800F098
:1004B000077BD3FEFDFCFBFAF9F8F7F6F5F41A9882
:1004C00007F0E4FA19901B9807F0E0FA18901C98CE
:1004D00007F0DCFA17901D9807F0D8FA16901E98CE
:1004E00007F0D4FA15901F9807F0D0FA14902098CE
:1004F00007F0CCFA1390219807F0C8FA12902298CE
:1005000007F0C4FA1190239807F0C0FA10902498CD
:1005100007F0BCFA0F90259807F0B8FA0E90DDE9C5
:100520001623DDE91810CDE90423CDE90610DDE935
:100530001223DDE91410CDE90023CDE902100EA845
:100540000FC800F06DFE06212D9890FBF1F0C0B2AF
:100550002B902D9890FBF1F1199000EBD07001EBEE
:100560006000C0B22A90002029902C98C1171990E1
:1005700000EB9170C0F3870028902C98199000EB45
:10058000D070C0F3470027902C98C117199000EB4A
:10059000917081102C98401AC0B226900A2002F067
:1005A00078FA27E2FEE32B9801F063FD37490978DA
:1005B000084419902B9801F0C8FD18902A9801F072
:1005C00058FD32490978084417902A9801F0BDFD7A
:1005D00016902B9801F04DFD2C4909780844159090
:1005E0002B9801F0B2FD14902A9801F042FD2749A2
:1005F0000978084413902A9801F0A7FD0022129070
:10060000DDE91810CDE90421CDE906021346DDE944
:1006100015211798CDE90023CDE90210002212A878
:100620000BC800F0FDFD2B98401CC0B22B902A98FF
:10063000401CC0B22A902D992B98884201DB0020E3
:100640002B902D992A98884201DB00202A900A20BD
:1006500002F01FFAB8E32B9801F00BFD0B49097863
:10066000084419902B9801F015FE18902A9801F073
:1006700000FD064909780844179018E0580000204A
:1006800028000020740000205C00002024000020CE
:1006900000002041002C01406DE31DE312E3E0E285
:1006A000C9E1B8E1A7E14FE1F7E09EE045E02A9813
:1006B00001F0F0FD16902B9801F0DBFCFE49097863
:1006C000084415902B9801F0E5FD14902A9801F04C
:1006D000D0FCF9490978084413902A9801F0DAFD12
:1006E00000221290DDE91810CDE90421CDE90602BF
:1006F0001346DDE915211798CDE90023CDE9021055
:10070000002212A80BC800F08BFD2B98401CC0B231
:100710002B902A98401CC0B22A902D992B98884281
:1007200001DB00202B902D992A98884201DB0020C4
:100730002A900A2002F0ADF946E32B9801F099FCCB
:10074000DD490978084419902B9801F0FEFC1890B7
:100750002A9801F08EFCD8490978084417902A9805
:1007600001F0F3FC16902B9801F083FCD249097834
:10077000084415902B9801F08DFD14902A9801F0F3
:1007800078FCCD490978084413902A9801F082FD3D
:1007900000221290DDE91810CDE90421CDE906020E
:1007A0001346DDE915211798CDE90023CDE90210A4
:1007B000002212A80BC800F033FD2B98401CC0B2D9
:1007C0002B902A98401CC0B22A902D992B988842D1
:1007D00001DB00202B902D992A98884201DB002014
:1007E0002A900A2002F055F9EEE22B9801F041FC24
:1007F000B1490978084419902B9801F04BFD1890E5
:100800002A9801F036FCAC490978084417902A98D8
:1008100001F040FD16902B9801F02BFCA6490978B9
:10082000084415902B9801F090FC14902A9801F040
:1008300020FCA1490978084413902A9801F085FC0E
:1008400000221290DDE91810CDE90421CDE906025D
:100850001346DDE915211798CDE90023CDE90210F3
:10086000002212A80BC800F0DBFC2B98401CC0B281
:100870002B902A98401CC0B22A902D992B98884220
:1008800001DB00202B902D992A98884201DB002063
:100890002A900A2002F0FDF896E22B9801F0C1FDA3
:1008A00019902B9801F0E5FB8349097808441890CA
:1008B0002A9801F0B6FD17902A9801F0DAFB7E49DC
:1008C0000978084416902B9801F0ABFD15902B98F1
:1008D00001F0CFFB78490978084414902A9801F078
:1008E000A0FD13902A9801F0C4FB734909780844CD
:1008F00012900023DDE917211998CDE90423CDE9F1
:100900000610DDE9141216988DE80E0003901846C3
:10091000DDE9121200F084FC2B98401CC0B22B9031
:100920002A98401CC0B22A902D992B98884201DB4E
:1009300000202B902D992A98884201DB00202A90D4
:100940000A2002F0A6F83FE22B9801F00FFE199062
:100950002B9801F08EFB58490978084418902A9882
:1009600001F004FE17902A9801F083FB52490978A0
:10097000084416902B9801F0F9FD15902B9801F082
:1009800078FB4D490978084414902A9801F0EEFD4F
:1009900013902A9801F06DFB47490978084412909A
:1009A0000023DDE917211998CDE90423CDE90610CC
:1009B000DDE9152114988DE80D0003911846DDE955
:1009C000121200F02DFC2B98401CC0B22B902A98DC
:1009D000401CC0B22A902D992B98884201DB002040
:1009E0002B902D992A98884201DB00202A900A201A
:1009F00002F04FF8E8E130480078001D2E490870F9
:100A00000846007807F096F81B901E9021902490DD
:100A100000203190D8E128480078001F264908704E
:100A20000846007807F086F81B901E9021902490CD
:100A300000203190C8E12C9806F0AAFBCDE9040112
:100A4000279806F0A5FB1D4A1D4BCDE9000106F0D5
:100A5000B3FBCDE90201DDE9042306F0CDF9CDE9D0
:100A6000060106F045F8CDE90A012E9806F090FB44
:100A7000CDE90801DDE90A2306F09EFBCDE90C0172
:100A800006F012FB1990269801F0DCFE0A4909785D
:100A900008441890269801F00EFE17902C9806F046
:100AA00077FBCDE90401279806F072FB034A044B5B
:100AB000CDE9000106E00000240000204AD8124DD4
:100AC000FB21194006F078FBCDE90201DDE90423A2
:100AD00006F092F9CDE9060106F00AF8CDE90A011F
:100AE0002E9806F055FBCDE90801DDE90A2306F052
:100AF00063FBCDE90C0106F0D7FA1690299801F0B6
:100B0000A1FEB349097808441590299801F0D3FD56
:100B100014902C9806F03CFBCDE90401279806F0D0
:100B200037FBAC4AAC4BCDE9000106F045FBCDE903
:100B30000201DDE9042306F05FF9CDE9060105F0C5
:100B4000D7FFCDE90A012E9806F022FBCDE9080176
:100B5000DDE90A2306F030FBCDE90C0106F0A4FA2A
:100B60001390279801F06EFE994909780844129075
:100B7000279801F0A0FD11902C9806F009FBCDE913
:100B80000401279806F004FB924A934BCDE900013B
:100B900006F012FBCDE90201DDE9042306F02CF991
:100BA000CDE9060105F0A4FFCDE90A012E9806F073
:100BB000EFFACDE90801DDE90A2306F0FDFACDE9F7
:100BC0000C0106F071FA1090289801F03BFE804964
:100BD000097808440F90289801F06DFD0E90DDE92A
:100BE000162300E0F1E0DDE91810CDE90423CDE99A
:100BF0000610DDE91223DDE91410CDE90023CDE96B
:100C000002100EA80FC800F00BFB2998401CC0B2C0
:100C100029902898401CC0B228902798401CC0B248
:100C200027902698401CC0B226902C99299888427B
:100C300001DB002029902C992898884201DB0020B4
:100C400028902C992798884201DB002027902C9926
:100C50002698884201DB002026900A2001F019FF27
:100C6000B2E040F2DC515D4803F0E6FA642001F0A6
:100C700010FF40F6C411594803F0E0FA642001F077
:100C800008FF40F2DC51554803F0DAFA642001F025
:100C900000FF4FF4FA61514803F0CEFA642001F0EE
:100CA000F8FE4FF4FA714D4803F0C8FA642001F0E1
:100CB000F0FE4FF4FA61494803F0C2FA642001F0F3
:100CC000E8FE81E0FF2001F09DFEFF2001F09AFE8A
:100CD000FF2001F097FE77E01E205A210F2200230B
:100CE000CDE90610CDE90432CDE900031346CDE984
:100CF000022000220F2000F093FA4FF4967001F0CA
:100D0000C8FE0020199030E01E205A210F22002337
:100D1000CDE90610CDE90432CDE900031346CDE953
:100D20000220002205216FF0360000F079FA4FF41E
:100D3000967001F0AEFE1E205A210F220023CDE94D
:100D40000610CDE90432CDE900031346CDE90220B7
:100D5000002246216FF0360000F062FA4FF49670E0
:100D600001F097FE1998401C199019980528CBD3CB
:100D70000020319028E0002031904620144908706E
:100D80000846007806F0D6FE1B901E902190249015
:100D900000200F4909780490CDE9050107900C481F
:100DA000017800E00FE00A220020094B1B78CDE912
:100DB0000030CDE9022113460246054801780020A3
:100DC00000F02EFA00E000BF00BFFFF70DBB0000EF
:100DD000240000204AD8124DFB211940002C01406C
:100DE000704700BFFEE700BFFEE700BFFEE700BFA1
:100DF000FEE7704770477047704700000CB5002051
:100E0000019000906C48006840F480306A490860A6
:100E100000BF6948006800F4003000900198401C51
:100E20000190009818B90198B0F5A06FF1D162480F
:100E3000006800F4003010B10120009001E00020B3
:100E400000900098012843D15C48006840F01000F1
:100E50005A4908600846006820F003000860084608
:100E6000006840F0020008605348406852494860FA
:100E70000846406848600846406840F48060486022
:100E80000846406820F47C1048600846406840F4FA
:100E9000E81048600846006840F08070086000BFB5
:100EA0004548006800F000700028F9D042484068CA
:100EB00020F00300404948600846406840F00200C6
:100EC000486000BF3C48406800F00C000828F9D199
:100ED0000CBD10B5FFF792FF10BD10B53648006885
:100EE00040F0010034490860084640683449084031
:100EF0003149486008460068324908402E49086078
:100F00000846006820F4802008600846406820F405
:100F1000FE0048604FF41F008860FFF7DAFF4FF0D3
:100F200000602949086010BD10B500210020002292
:100F3000214B5B6803F00C0121B1042906D008297C
:100F400028D107E0214B224C236027E01F4B204C87
:100F5000236023E0184B5B6803F47010164B5B684A
:100F600003F48032022303EB904022B9194B434330
:100F7000174C23600DE0104B5B6803F4003323B182
:100F8000144B4343124C236003E0104B4343104C7B
:100F9000236003E00D4B0E4C236000BF00BF064BE7
:100FA0005B68C3F303130C4CE15C094B1B68CB403B
:100FB000074C236010BD00000010024000200240DA
:100FC0000000FFF8FFFFF6FE08ED00E000127A00D7
:100FD0000000002000093D000400002008B50121A8
:100FE0000D2002F0FBF918208DF8030040F6CF60C9
:100FF000ADF8000003208DF802006946074801F0B3
:1010000031FF0121064801F0FEFF40F6C370ADF844
:1010100000006946034801F025FF08BD00080140B3
:1010200040001600000C014000B587B00121C80245
:1010300002F0D4F90121084602F0DDF90121022075
:1010400002F0D9F90121042002F0D5F90121084666
:1010500002F0C4F901216E4801F0D5FF0020ADF87F
:101060001600ADF8120044F61F60ADF814004720DA
:10107000ADF8100000208DF8180004A9654802F0B2
:10108000E5FA04A94FF0804002F0E0FA04A96248B2
:1010900002F0DCFA04A9614802F0D8FA7020ADF839
:1010A00000000020ADF80C000220ADF8080001207F
:1010B000ADF802000020ADF806006946554802F080
:1010C00002FB6946534802F040FB6946514802F072
:1010D00089FB69464F4802F0D0FB69464FF08040DB
:1010E00002F0F1FA69464FF0804002F02EFB6946AB
:1010F0004FF0804002F076FB69464FF0804002F0EE
:10110000BCFB6946444802F0DEFA6946424802F0F8
:101110001CFB6946404802F065FB69463E4802F008
:10112000ACFB69463D4802F0CEFA69463B4802F006
:101130000CFB6946394802F055FB6946374802F016
:101140009CFB0821334802F00DFF0821314802F0D2
:1011500012FF08212F4802F01BFF08212D4802F042
:1011600020FF0821C80602F0FDFE0821C80602F093
:1011700002FF0821C80602F00BFF0821C80602F092
:1011800010FF0821244802F0EDFE0821224802F059
:10119000F2FE0821204802F0FBFE08211E4802F062
:1011A00000FF08211D4802F0DDFE08211B4802F067
:1011B000E2FE0821194802F0EBFE0821174802F070
:1011C000F0FE0121134802F09DFE0121880702F084
:1011D00099FE0121104802F095FE01210F4802F00E
:1011E00091FE01210B4802F099FD0121094802F00E
:1011F00089FD0121880702F085FD0121064802F0E2
:1012000081FD0121054802F07DFD07B000BD000011
:1012100000021800002C01400004004000080040BB
:101220000FB5ABB02B9806F06DFC29902C9806F00A
:1012300069FC28902D98404206F064FC279000211C
:10124000279806F08BFD1CD2DDE9271006F028FB5D
:10125000119006F08BFACDE9120105F0EBFA0022AD
:10126000FE4BCDE9140105F0A7FFFD4AFD4BCDE98A
:10127000160105F0C1FDCDE9180105F045FFC0B22A
:1012800024900021279806F069FC22D2DDE927107E
:1012900006F006FB0F9006F069FACDE9100105F0A3
:1012A000C9FA0022ED4BCDE9120105F085FFEC4AA9
:1012B000EC4BCDE9140105F09FFD0022E74BCDE991
:1012C000160105F0E9FCCDE9180105F01DFFC0B2DB
:1012D00024900021279806F0A5FB01D15A202490E4
:1012E0002799084606F06EFC0A902899084606F0F1
:1012F00069FC08902999084606F064FC0790089953
:1013000006F060FA09900A9906F05CFA0B9006F074
:101310002DFACDE90C0105F03BFC0022D24BCDE9C2
:101320000E0106F039F9CDE912012799084606F0B9
:1013300049FC0A902899084606F044FC089029992F
:10134000084606F03FFC0790089906F03BFA099022
:101350000A9906F037FA0B9006F008FACDE90C016D
:1013600005F016FC0022C04BCDE90E0106F014F981
:10137000CDE91001DDE9122305F01EFF0022BB4B71
:10138000CDE9140106F016F80022B84BCDE916019C
:1013900005F032FDCDE9180105F04CFC2A902A98A1
:1013A00006F0E4F9CDE9100105F006F90022AB4B97
:1013B000CDE9120105F000FFA94AAA4BCDE91401BD
:1013C00005F01AFD0022A54BCDE9160105F0F2FF4C
:1013D000CDE9180105F098FEC0B2259000212998AA
:1013E00006F0BCFC48D225981A9000EBD070401053
:1013F000139005F0B6FECDE91601299806F0B6F96E
:10140000CDE90C01249805F0C3FECDE9020105F0F9
:1014100021FB0022944BCDE9040105F0CDFECDE97E
:101420000801289806F0A2F9CDE90601DDE90823B4
:1014300006F0B2F8CDE90A01DDE90C2305F0DCFC89
:10144000CDE90E0105F0F6F90022844BCDE910013B
:1014500005F0B2FE824A834BCDE9120105F0CCFCC7
:10146000CDE91401DDE9162306F096F8CDE918015F
:1014700005F04AFEC0B226900021299806F06EFBC6
:101480004ED225981A9000EBD0704010139005F0C2
:1014900068FECDE91601299806F068F9CDE90A0140
:1014A000249805F075FECDE9000105F0D3FA00227D
:1014B0006D4BCDE9020105F07FFECDE906012898CC
:1014C00006F054F9CDE90401DDE9062306F064F8DD
:1014D000CDE90801DDE90A2305F08EFCCDE90C0118
:1014E00005F0A8F900225D4BCDE90E0105F064FE80
:1014F0005B4A5C4BCDE9100105F07EFC0022574BA6
:10150000CDE9120105F0C8FBCDE91401DDE9162390
:1015100006F042F8CDE9180105F0F6FDC0B22690BC
:101520000021299806F07EFA08D125981A9000EB40
:10153000D0704010C0F15A00C0B226902498C0F17B
:10154000E1004B49097808441E3800EB400101EBEB
:10155000C00080B201461A904FF0804002F06EFE4B
:101560002698C0F1E1004249497808441E3800EB52
:10157000400101EBC00080B201461A904FF080405C
:1015800002F05AFE25982D303949897808441E38D2
:1015900000EB400101EBC00080B201461A904FF011
:1015A000804002F047FE2E9806F0ACFA2990309861
:1015B00006F0A8FA2890319806F0A4FA27900021A6
:1015C000279806F0CBFB1CD2DDE9271006F068F95E
:1015D000119006F0CBF8CDE9120105F02BF90022AD
:1015E0001E4BCDE9140105F0E7FD1D4A1D4BCDE969
:1015F000160105F001FCCDE9180105F085FDC0B22A
:1016000021900021279806F0A9FA22D2DDE92710BF
:1016100006F046F90F9006F0A9F8CDE9100105F0A3
:1016200009F900220D4BCDE9120105F0C5FD0C4A68
:101630000C4BCDE9140105F0DFFB0022074BCDE98F
:10164000160105F029FBCDE9180105F05DFDC0B2DA
:1016500021900021279806F0E5F90BE00080664014
:101660004AD8124DFB210940000020400088B340B9
:101670007800002001D15A2021902799084606F0D1
:10168000A1FA0A902899084606F09CFA0890299930
:10169000084606F097FA0790089906F093F8099023
:1016A0000A9906F08FF80B9006F060F8CDE90C016E
:1016B00005F06EFA0022FE4BCDE90E0105F06CFF3D
:1016C000CDE912012799084606F07CFA0A9028997C
:1016D000084606F077FA08902999084606F072FA4B
:1016E0000790089906F06EF809900A9906F06AF8D2
:1016F0000B9006F03BF8CDE90C0105F049FA002209
:10170000EB4BCDE90E0105F047FFCDE91001DDE916
:10171000122305F051FD0022E64BCDE9140105F03E
:1017200049FE0022E34BCDE9160105F065FBCDE94A
:10173000180105F07FFA2A902A9806F017F8CDE9EB
:10174000100104F039FF0022DB4BCDE9120105F056
:1017500033FDDA4ADA4BCDE9140105F04DFB0022E6
:10176000D54BCDE9160105F025FECDE9180105F0B0
:10177000CBFCC0B222900021299806F0EFFA48D2A3
:1017800022981A9000EBD0704010139005F0E9FCFD
:10179000CDE91601299805F0E9FFCDE90C01219862
:1017A00005F0F6FCCDE9020105F054F90022C04B2A
:1017B000CDE9040105F000FDCDE90801289805F008
:1017C000D5FFCDE90601DDE9082305F0E5FECDE909
:1017D0000A01DDE90C2305F00FFBCDE90E0105F050
:1017E00029F80022B44BCDE9100105F0E5FCB34A1D
:1017F000B34BCDE9120105F0FFFACDE91401DDE9A3
:10180000162305F0C9FECDE9180105F07DFCC0B234
:1018100023900021299806F0A1F94ED222981A901F
:1018200000EBD0704010139005F09BFCCDE9160141
:10183000299805F09BFFCDE90A01219805F0A8FC45
:10184000CDE9000105F006F90022994BCDE902012E
:1018500005F0B2FCCDE90601289805F087FFCDE937
:101860000401DDE9062305F097FECDE90801DDE975
:101870000A2305F0C1FACDE90C0104F0DBFF0022D8
:101880008D4BCDE90E0105F097FC8C4A8C4BCDE9D0
:10189000100105F0B1FA0022874BCDE9120105F0E5
:1018A000FBF9CDE91401DDE9162305F075FECDE95C
:1018B000180105F029FCC0B223900021299806F0F8
:1018C000B1F808D122981A9000EBD0704010C0F106
:1018D0005A00C0B2239021982D307A49C978084423
:1018E0001E3800EB400101EBC00080B201461A90A7
:1018F0004FF0804002F0A4FC2398C0F1E100714950
:10190000097908441E3800EB400101EBC00080B2A9
:1019100001461A906C4802F08DFC22982D306949DE
:10192000497908441E3800EB400101EBC00080B249
:1019300001461A90644802F081FC329806F0E2F801
:101940002990339806F0DEF828903498404206F04B
:10195000D9F827900021279806F000FA1CD2DDE97B
:10196000271005F09DFF119005F000FFCDE9120151
:1019700004F060FF0022504BCDE9140105F01CFC7F
:101980004E4A4F4BCDE9160105F036FACDE9180164
:1019900005F0BAFBC0B21E900021279806F0DEF8D1
:1019A00022D2DDE9271005F07BFF0F9005F0DEFE67
:1019B000CDE9100104F03EFF00223F4BCDE91201BA
:1019C00005F0FAFB3D4A3E4BCDE9140105F014FA4F
:1019D0000022394BCDE9160105F05EF9CDE9180179
:1019E00005F092FBC0B21E900021279806F01AF86D
:1019F00001D15A201E902799084606F0E3F80A9074
:101A00002899084606F0DEF808902999084606F05D
:101A1000D9F80790089905F0D5FE09900A9905F0C4
:101A2000D1FE0B9005F0A2FECDE90C0105F0B0F857
:101A300000221F4BCDE90E0105F0AEFDCDE91201EC
:101A40002799084606F0BEF80A902899084606F03D
:101A5000B9F808902999084606F0B4F80790089953
:101A600005F0B0FE09900A9905F0ACFE0B9005F068
:101A70007DFECDE90C0105F08BF800220C4BCDE981
:101A80000E0105F089FDCDE91001DDE9122305F015
:101A900093FB0022074BCDE9140105F08BFC0022DB
:101AA000044BCDE9160105F0A7F9CDE918010DE0C9
:101AB000000020400088B340008066404AD8124DA4
:101AC000FB210940780000200004004005F0B2F836
:101AD0002A902A9805F04AFECDE9100104F06CFD29
:101AE0000022FE4BCDE9120105F066FBFC4AFD4BDE
:101AF000CDE9140105F080F90022F84BCDE916017B
:101B000005F058FCCDE9180105F0FEFAC0B21F90AF
:101B10000021299806F022F948D21F981A9000EB6C
:101B2000D0704010139005F01CFBCDE916012998E8
:101B300005F01CFECDE90C011E9805F029FBCDE94E
:101B4000020104F087FF0022E74BCDE9040105F014
:101B500033FBCDE90801289805F008FECDE9060120
:101B6000DDE9082305F018FDCDE90A01DDE90C23C4
:101B700005F042F9CDE90E0104F05CFE0022D74BDE
:101B8000CDE9100105F018FBD54AD64BCDE912017D
:101B900005F032F9CDE91401DDE9162305F0FCFC6E
:101BA000CDE9180105F0B0FAC0B2209000212998C3
:101BB00005F0D4FF4ED21F981A9000EBD070401061
:101BC000139005F0CEFACDE91601299805F0CEFD67
:101BD000CDE90A011E9805F0DBFACDE9000104F019
:101BE00039FF0022C04BCDE9020105F0E5FACDE94D
:101BF0000601289805F0BAFDCDE90401DDE90623C8
:101C000005F0CAFCCDE90801DDE90A2305F0F4F886
:101C1000CDE90C0104F00EFE0022B04BCDE90E011F
:101C200005F0CAFAAE4AAF4BCDE9100105F0E4F871
:101C30000022AA4BCDE9120105F02EF8CDE91401DE
:101C4000DDE9162305F0A8FCCDE9180105F05CFAE2
:101C5000C0B220900021299805F0E4FE08D11F9819
:101C60001A9000EBD0704010C0F15A00C0B2209022
:101C70001E98C0F1E1009D49897908441E3800EBA7
:101C8000400101EBC00080B201461A90984802F072
:101C9000D1FA20982D309549C97908441E3800EBB7
:101CA000400101EBC00080B201461A90914802F059
:101CB000C7FA1F98C0F1E1008C49097A08441E3820
:101CC00000EB400101EBC00080B201461A90894848
:101CD00002F0B2FA359805F015FF2990369805F014
:101CE00011FF2890379805F00DFF279000212798C5
:101CF00006F034F81CD2DDE9271005F0D1FD119073
:101D000005F034FDCDE9120104F094FD0022734B7F
:101D1000CDE9140105F050FA714A724BCDE9160174
:101D200005F06AF8CDE9180105F0EEF9C0B21B9094
:101D30000021279805F012FF22D2DDE9271005F0D7
:101D4000AFFD0F9005F012FDCDE9100104F072FD1A
:101D50000022624BCDE9120105F02EFA604A614B78
:101D6000CDE9140105F048F800225C4BCDE91601DD
:101D700004F092FFCDE9180105F0C6F9C0B21B903E
:101D80000021279805F04EFE01D15A201B9027997B
:101D9000084605F017FF0A902899084605F012FF3B
:101DA00008902999084605F00DFF0790089905F05D
:101DB00009FD09900A9905F005FD0B9005F0D6FC88
:101DC000CDE90C0104F0E4FE0022474BCDE90E0101
:101DD00005F0E2FBCDE912012799084605F0F2FE75
:101DE0000A902899084605F0EDFE089029990846C2
:101DF00005F0E8FE0790089905F0E4FC09900A99BF
:101E000005F0E0FC0B9005F0B1FCCDE90C0104F00D
:101E1000BFFE0022344BCDE90E0105F0BDFBCDE93C
:101E20001001DDE9122305F0C7F90022324BCDE99C
:101E3000140105F0BFFA00222F4BCDE9160104F082
:101E4000DBFFCDE9180104F0F5FE2A902A9805F091
:101E50008DFCCDE9100104F0AFFB00221F4BCDE952
:101E6000120105F0A9F91E4A1E4BCDE9140104F038
:101E7000C3FF0022194BCDE9160105F09BFACDE90D
:101E8000180105F041F9C0B21C900021299805F015
:101E900065FF59D21C981A9000EBD0704010139037
:101EA00005F05FF9CDE91601299805F05FFCCDE951
:101EB0000C011B9805F06CF9CDE9020104F0CAFD94
:101EC0000022094BCDE9040105F076F9CDE90801BE
:101ED000289805F04BFCCDE906010FE00080664034
:101EE0004AD8124DFB210940000020407800002014
:101EF00000080040000400400088B340DDE90823EA
:101F000005F04AFBCDE90A01DDE90C2304F074FF7A
:101F1000CDE90E0104F08EFC0022FE4BCDE910014C
:101F200005F04AF9FC4AFD4BCDE9120104F064FFCB
:101F3000CDE91401DDE9162305F02EFBCDE91801EA
:101F400005F0E2F8C0B21D900021299805F006FEC8
:101F50004ED21C981A9000EBD0704010139005F0F0
:101F600000F9CDE91601299805F000FCCDE90A0138
:101F70001B9805F00DF9CDE9000104F06BFD00227E
:101F8000E74BCDE9020105F017F9CDE906012898E4
:101F900005F0ECFBCDE90401DDE9062305F0FCFAD0
:101FA000CDE90801DDE90A2304F026FFCDE90C01A3
:101FB00004F040FC0022D74BCDE90E0105F0FCF8FF
:101FC000D54AD64BCDE9100104F016FF0022D14BC3
:101FD000CDE9120104F060FECDE91401DDE916231C
:101FE00005F0DAFACDE9180105F08EF8C0B21D90BF
:101FF0000021299805F016FD08D11C981A9000EBD5
:10200000D0704010C0F15A00C0B21D901B982D3006
:10201000C449497A08441E3800EB400101EBC00076
:1020200080B201461A90C04802F006F91D982D3082
:10203000BC49897A08441E3800EB400101EBC0001E
:1020400080B201461A90B84802F0F8F81C98C0F126
:10205000E100B449C97A08441E3800EB400101EBA5
:10206000C00080B201461A90AF4802F0E9F82FB0E4
:1020700000BD2DE9F04F8DB08346584605F05AFD5E
:102080000546AA480168284605F09CFD8146A848F7
:102090000168A848006805F095FD0546494605F029
:1020A0005DFE4DD8A3480168A148006805F08AFD8F
:1020B000099005F05BFB07468846484605F056FB4D
:1020C000954A9D4BCDE9080105F076F83A4643461E
:1020D000CDE90A0104F090FE054604F0ABFD82460E
:1020E0009648006805F03DF8CDE90801504605F036
:1020F0003DFB074604F0AEFC05460022904B05F080
:1021000059F9CDE902018F48006805F02AF8CDE9B8
:102110000001DDE9022305F04FF800224FF0804373
:10212000CDE9040104F068FECDE90601DDE90823EC
:1021300004F0B2FDCDE90A0104F0B6FF044600E068
:10214000002460420DB0BDE8F08F2DE9F14F8EB054
:102150000E9805F0EFFC054674480168284605F026
:1021600031FD8146724801687248006805F02AFD19
:102170000546494605F0F2FD54D86E4801686C48A2
:10218000006805F01FFD834605F0F0FA05460E468F
:10219000484605F0EBFA604A674BCDE90A0105F0C5
:1021A0000BF82A463346CDE90C0104F025FE07461C
:1021B00004F040FD82466448006804F0D2FFCDE997
:1021C0000A01504605F0D2FA074604F091FCCDE929
:1021D0000001504605F0CAFA0546DDE9002305F086
:1021E000DBF94D4A544BCDE9020104F005FECDE97F
:1021F000060156490968544A1268881A04F0B1FF6A
:10220000CDE90401DDE9062304F0D6FFCDE908019C
:10221000DDE90A2304F040FDCDE90C0104F044FFA0
:10222000044633E04948006805F06CFC0D904048D6
:1022300001684048006805F0C5FC83463D480168D8
:10224000584605F0BCFD0746394801683948006822
:1022500005F0B8FC49460B9005F0B1FD83463A49BC
:1022600009683A4A1268881A05F04CFC59460C90E5
:1022700005F0A8FC8046394605F012FB06460D998C
:1022800005F0A0FA054605F001FC044620460FB013
:10229000BDE8F08F2DE9F14F8EB00E9805F04AFCA5
:1022A000054622480168284605F08CFC81462048F6
:1022B00001682048006805F085FC0546494605F0A0
:1022C0004DFD76D81B4801681948006805F07AFC76
:1022D000834605F04BFA05460E46484605F046FA99
:1022E0000D4A154BCDE90A0104F066FF2A46334634
:1022F000CDE90C0104F080FD074604F09BFC82460A
:102300001348006804F02DFFCDE90A01504605F09E
:102310002DFA1FE0008066404AD8124DFB2109408B
:1023200000002040780000200008004058000020F5
:102330002C00002028000020FB2119405000002024
:102340000000F03F54000020300000203400002046
:102350004C000020074604F0CBFBCDE900015046BD
:1023600005F004FA0546DDE9002305F015F9FE4AFB
:10237000FE4BCDE9020104F03FFDCDE90601FC4929
:102380000968FC4A1268881A04F0EBFECDE90401E2
:10239000DDE9062304F010FFCDE90801DDE90A2399
:1023A00004F07AFCCDE90C0104F07EFE044634E032
:1023B000FFE7EF48006805F0A5FB0D90EE480168C7
:1023C000EE48006805F0FEFB8346EC48016858467D
:1023D00005F0F5FC0746E8480168E848006805F0A4
:1023E000F1FB49460B9005F0EAFC8346E149096898
:1023F000DF4A1268881A05F085FB59460C9005F0F3
:10240000E1FB8046394605F04BFA06460D9905F08A
:10241000D9F9054605F03AFB044620460FB0BDE861
:10242000F08F2DE9F14F8EB00E9805F083FB054635
:10243000D3480168284605F0C5FB8146CE480168AF
:10244000CE48006805F0BEFB0546494605F086FC0F
:1024500054D8CA480168C848006805F0B3FB8346F1
:1024600005F084F905460E46484605F07FF9BE4A58
:10247000BE4BCDE90A0104F09FFE2A463346CDE962
:102480000C0104F0B9FC074604F0D4FB8246BD48B9
:10249000006804F066FECDE90A01504605F066F9D1
:1024A000074604F025FBCDE90001504605F05EF932
:1024B0000546DDE9002305F06FF8AB4AAB4BCDE9EB
:1024C000020104F099FCCDE90601AF490968AD4A63
:1024D0001268881A04F045FECDE90401DDE90623FF
:1024E00004F06AFECDE90801DDE90A2304F0D4FB1B
:1024F000CDE90C0104F0D8FD044633E0A2480068A1
:1025000005F000FB0D909C4801689C48006805F0B0
:1025100059FB834699480168584605F050FC074628
:10252000954801689548006805F04CFB49460B90BA
:1025300005F045FC834693490968934A1268881A56
:1025400005F0E0FA59460C9005F03CFB8046394610
:1025500005F0A6F906460D9905F034F9054605F093
:1025600095FA044620460FB0BDE8F08F2DE9F14FF3
:102570008EB00E9805F0DEFA0546814801682846BF
:1025800005F020FB81467C4801687C48006805F026
:1025900019FB0546494605F0E1FB54D87748016828
:1025A0007548006805F00EFB834605F0DFF8054628
:1025B0000E46484605F0DAF86B4A6C4BCDE90A0145
:1025C00004F0FAFD2A463346CDE90C0104F014FC70
:1025D000074604F02FFB82466C48006804F0C1FDFA
:1025E000CDE90A01504605F0C1F8074604F080FA2B
:1025F000CDE90001504605F0B9F80546DDE90023B4
:1026000004F0CAFF584A594BCDE9020104F0F4FB2B
:10261000CDE906015E4909685C4A1268881A04F02F
:10262000A0FDCDE90401DDE9062304F0C5FDCDE9F7
:102630000801DDE90A2304F02FFBCDE90C0104F0C9
:1026400033FD044633E05248006805F05BFA0D9014
:10265000494801684948006805F0B4FA834647488C
:102660000168584605F0ABFB0746434801684348FC
:10267000006805F0A7FA49460B9005F0A0FB8346D9
:1026800042490968424A1268881A05F03BFA5946DD
:102690000C9005F097FA8046394605F001F9064698
:1026A0000D9905F08FF8054605F0F0F9044620462F
:1026B0000FB0BDE8F08F2DE9F14F8EB00E9805F008
:1026C00039FA054633480168284605F07BFA814609
:1026D000314801683148006805F074FA05464946FA
:1026E00005F03CFB76D82D4801682B48006805F0C2
:1026F00069FA834605F03AF805460E46484605F065
:1027000035F8194A194BCDE90A0104F055FD2A465E
:102710003346CDE90C0104F06FFB074604F08AFA5A
:1027200082461F48006804F01CFDCDE90A015046AE
:1027300005F01CF8074604F0DBF9CDE9000150462E
:1027400005F014F80546DDE9002304F025FF064AEC
:10275000064BCDE9020104F04FFBCDE9060111491A
:1027600009680F4A12681FE04AD8124DFB21194030
:10277000480000204C0000202C00002028000020F1
:1027800058000020380000203C00002040000020BD
:102790004400002074000020600000205C00002045
:1027A0006400002068000020881A04F0DAFCCDE9FB
:1027B0000401DDE9062304F0FFFCCDE90801DDE9B1
:1027C0000A2304F069FACDE90C0104F06DFC04461B
:1027D00034E0FFE75148006805F094F90D90504847
:1027E00001685048006805F0EDF983464D480168DE
:1027F000584605F0E4FA0746494801684948006828
:1028000005F0E0F949460B9005F0D9FA83464649B0
:102810000968424A1268881A05F074F959460C9002
:1028200005F0D0F98046394605F03AF806460D998C
:1028300004F0C8FF054605F029F9044620460FB00C
:10284000BDE8F08F2DE9F14F8CB00C9805F072F9CE
:10285000044636480168204605F0B4F983463148FD
:1028600001682F48006805F0ADF9099004F07EFF7B
:1028700006460F46584604F079FF2D4A2D4BCDE908
:10288000080104F099FC804632463B4604F0B4FA55
:10289000044604F0CFF90A902148016821480068F5
:1028A00005F090F90446594605F058FA2FD8224809
:1028B000006804F056FC804689460A9804F056FFEA
:1028C000064604F0C7F8044600221C4B04F072FDD3
:1028D000CDE902011A48006804F043FCCDE900018B
:1028E000DDE9022304F068FC00224FF08043CDE9CB
:1028F000040104F081FA42464B46CDE9060104F09A
:10290000CBF9CDE9080104F0CFFB824601E04FF09E
:10291000000ACAF100000DB0BDE8F08F6800002089
:10292000600000205C000020640000207400002093
:102930004AD8124DFB2119406C0000200000F03FE6
:102940007000002008B50121042000F047FD4FF47D
:102950007040ADF8000010208DF8030003208DF8C2
:10296000020069463E4800F07DFA4FF480513C4831
:1029700000F027FB4FF40051394800F022FB4FF4E0
:102980008041374800F01DFB4FF40041344800F00F
:1029900018FB08BD2DE9F04104460D4616461F46BA
:1029A0002CB94FF480512E4800F00BFB04E04FF49B
:1029B00080512B4800F003FB2DB94FF400512848FB
:1029C00000F0FFFA04E04FF40051254800F0F7FA58
:1029D0002EB94FF48041224800F0F3FA04E04FF49E
:1029E00080411F4800F0EBFA2FB94FF400411C481A
:1029F00000F0E7FA04E04FF40041194800F0DFFA74
:102A0000BDE8F08110B5044600231A46194601209E
:102A1000FFF7C0FF204600F03CF800231A460121D2
:102A20001846FFF7B7FF204600F033F800230122D5
:102A300019461846FFF7AEFF204600F02AF801239A
:102A4000002211461046FFF7A5FF204600F021F8AE
:102A500001231A4619461846FFF79CFF10BD0000D7
:102A6000000C014000EBC001C9004FF0E0225161B1
:102A7000002191610521116100BF4FF0E02109693A
:102A800001F480310029F8D004214FF0E0221161D7
:102A9000704700B5034603E04FF47A70FFF7E2FF9A
:102AA000181EA3F10103F7D100BD10B5044603E0E1
:102AB0004FF47A70FFF7EDFF201EA4F10104F7D167
:102AC00010BD000010B586B004460121480400F096
:102AD00092FC0121042000F081FC0420ADF81400D8
:102AE00003208DF8160018208DF8170005A96248FC
:102AF00000F0B8F90820ADF8140004208DF8170094
:102B000005A95D4800F0AEF926208DF800000320ED
:102B10008DF801008DF8020001208DF80300684651
:102B200000F0D7F801940020ADF80800ADF80A00D5
:102B3000ADF80C00ADF810000C20ADF80E0001A9A6
:102B40004E4801F000FC012240F225514B4801F0B3
:102B500092FC0121494801F082FC06B010BD10B57D
:102B600004462146454801F0E7FC00BF8021434868
:102B700001F050FD0028F9D010BD70B505460E4695
:102B8000002404E0285DFFF7EAFF601C84B2B44231
:102B9000F8DB70BD70B50446002504E0605DFFF70A
:102BA000DEFF681CC5B2605D0028F7D170BD10B5AE
:102BB0000246012000E050430B1EA1F10101FAD1B1
:102BC00010BD2DE9F04106460C46002512E0601BC1
:102BD000411E0A20FFF7EBFFB6FBF0F00A21B0FB25
:102BE000F1F201FB120000F130073846FFF7B7FFA2
:102BF000681CC5B2A542EADBBDE8F08170B50446A9
:102C00000D46E0B2FFF7ABFF204670BD0FB400B534
:102C10009BB01DA8019002A8019A1C9901F054FDD7
:102C20000020019002A8FFF7B5FF1BB05DF814FB70
:102C300013480078012804D10020114908700120B0
:102C400070470020FCE70F480078704710B540F24D
:102C500025510A4801F0F4FC01280CD1074801F085
:102C60006FFC0849087001200549087040F22551A1
:102C7000024801F00FFD10BD000801400044004073
:102C80009100002090000020094880470948004733
:102C9000FEE7FEE7FEE7FEE7FEE7FEE7FEE7FEE70C
:102CA000FEE7FEE704480549054A064B7047000069
:102CB000DB0E000831010008080100200807002091
:102CC000080300200803002031490143314A116004
:102CD000704770B5002100230F22C47804B32D4C37
:102CE000246804F4E064C4F5E064210AC1F104033B
:102CF000CA40447804FA03F184781440214309015E
:102D0000254C0678A155047804F01F050124AC4039
:102D100005786D11AD0005F1E025C5F8004109E029
:102D2000047804F01F050124AC401C4D0678761190
:102D300045F8264070BD1A4A0A400243154B1B1F36
:102D40001A60704739B1134A121D12680243114BC1
:102D50001B1D1A6006E00F4A121D126882430D4BBC
:102D60001B1D1A607047042808D14FF0E021096943
:102D700041F004014FF0E022116107E04FF0E02143
:102D8000096921F004014FF0E02211617047000051
:102D90000000FA050CED00E000E400E080E100E056
:102DA00080FFFF1F10B50446CC48844208D10121A2
:102DB000042000F02DFB0021042000F029FB46E058
:102DC000C748844208D10121082000F021FB0021DE
:102DD000082000F01DFB3AE0C248844208D10121DE
:102DE000102000F015FB0021102000F011FB2EE058
:102DF000BD48844208D10121202000F009FB0021B8
:102E0000202000F005FB22E0B848844208D10121CF
:102E1000402000F0FDFA0021402000F0F9FA16E011
:102E2000B348844208D10121802000F0F1FA00214A
:102E3000802000F0EDFA0AE0AE48844207D101217B
:102E4000801500F0E5FA0021A01500F0E1FA10BDB0
:102E500010B50121084600F0DBFA0021012000F046
:102E6000D7FA10BD2DE9F0410246002500260020CA
:102E700000230024002791F803C00CF00F0591F8FF
:102E800003C00CF0100CBCF1000F03D091F802C08D
:102E90004CEA050591F800C0BCF1000F31D0146870
:102EA00000202BE04FF0010C0CFA00F3B1F800C049
:102EB0000CEA03069E4220D183004FF00F0C0CFA5F
:102EC00003F7BC4305FA03FC4CEA040491F803C081
:102ED000BCF1280F06D14FF0010C0CFA00FCC2F82F
:102EE00014C00AE091F803C0BCF1480F05D14FF0BF
:102EF000010C0CFA00FCC2F810C0401C0828D1D309
:102F00001460B1F800C0BCF1FF0F34DD546800203C
:102F10002EE000F1080C4FF0010808FA0CF3B1F8AC
:102F200000C00CEA03069E4221D183004FF00F0C33
:102F30000CFA03F7BC4305FA03FC4CEA040491F8CD
:102F400003C0BCF1280F05D100F1080C08FA0CF8F9
:102F5000C2F8148091F803C0BCF1480F07D100F10A
:102F6000080C4FF0010808FA0CF8C2F81080401C59
:102F70000828CED35460BDE8F0814FF6FF71018080
:102F8000022181700421C1707047024600209368BD
:102F90000B400BB1012000E000207047014688681B
:102FA00080B2704702460020D3680B400BB101206D
:102FB00000E0002070470146C86880B27047016198
:102FC0007047416170470AB1016100E0416170479B
:102FD000C16070474FF480320A438261816182612F
:102FE00082698269704702460020434B18684FF699
:102FF0008073184040EA021008433F4B1860704746
:103000003E49C8617047F0B50A46002300240021FC
:10301000002500F00046B6F1004F02D1364EF169AE
:1030200001E0354E7168C0F3034583B200F44016E9
:10303000B6F5401F08D121F070612F4E766826F05A
:1030400070662D4F7E6012E000F48016B6F5801F8A
:1030500006D1032606FA05F4A14341F0706106E0AB
:10306000460D360103FA06F6B14341F0706122B114
:10307000460D360103FA06F6314300F00046B6F17C
:10308000004F02D11C4EF16101E01B4E7160F0BD9A
:1030900030B500228B071C0F0F2303FA04F2164BE6
:1030A00008338C1053F824309343134C08348D109C
:1030B00044F8253023468C1053F824308C07240F15
:1030C00000FA04F423430C4C08348D1044F82530E6
:1030D00030BD0A49DC31086070470000000801403B
:1030E000000C014000100140001401400018014094
:1030F000001C01400020014000000140000020426F
:10310000DF48006840F00100DD490860084640687B
:10311000DC490840DA49486008460068DA49084056
:10312000D74908600846006820F4802008600846F7
:10313000406820F4FE0048604FF41F00886070472C
:10314000CF49096821F48031CD4A116011460968E0
:1031500021F480211160B0F5803F03D0B0F5802FBD
:103160000ED106E0C649096841F48031C44A1160B5
:1031700007E0C349096841F4A021C14A116000E099
:1031800000BF00BF704710B5014600220023002099
:103190004A11012A02D1BA4C236806E0022A02D160
:1031A000B74C236A01E0B64C636A01F01F020124A8
:1031B00094401C400CB1012000E0002010BD38B547
:1031C000002000900024002500BF3120FFF7DBFF26
:1031D00005460098401C00900098B0F5A06F01D003
:1031E000002DF2D03120FFF7CEFF08B1012400E01E
:1031F0000024204638BD01460020A14A106820F076
:10320000F80040EAC10010607047A04908607047AC
:10321000024600209A4B586820F47C1042EA0103D1
:103220001843974B586070479849086670470146A5
:103230000020934A506820F0030008435060704714
:103240008F48406800F00C007047014600208C4A0F
:10325000506820F0F000084350607047014600209D
:10326000874A506820F4E060084350607047014688
:103270000020834A506820F4605040EAC10050604A
:10328000704729B17E4A527A02437D4B5A7204E05C
:103290007B4A527A82437A4B5A7270477B49D831C3
:1032A0000860704701460020754A506820F440408D
:1032B0000843506070470021714A20321170704AF3
:1032C00082F82010012802D004280AD104E001214C
:1032D0006B4A2032117005E00521694A20321170D5
:1032E00000E000BF00BF704769490860704764494B
:1032F000096A0143624A11627047654944390860AE
:10330000704730B500210022002400235C4D6D6819
:1033100005F00C0121B1042905D0082923D105E0CD
:103320005C4D056022E05B4D05601FE0544D6D680B
:1033300005F47012524D6D6805F48034022505EBDA
:1033400092421CB9544D554305600BE04C4D6D68DD
:1033500005F400351DB1504D5543056002E04D4D5B
:103360005543056002E04B4D056000BF00BF444D72
:103370006D6805F0F0010909484D6B5C0568DD409A
:1033800045603F4D6D6805F4E061090A434D6B5C93
:103390004568DD4085603A4D6D6805F46051C90AA5
:1033A0003E4D6B5C4568DD40C560354D6D6805F48C
:1033B0004041890B3A4D6B5CC568B5FBF3F505617F
:1033C00030BD29B12E4A526902432D4B5A6104E0A7
:1033D0002B4A526982432A4B5A61704729B1284AC5
:1033E00092690243264B9A6104E0254A926982431E
:1033F000234B9A61704729B1214AD2690243204B7D
:10340000DA6104E01E4AD26982431D4BDA617047DB
:1034100029B11B4AD2680243194BDA6004E0184A0A
:10342000D2688243164BDA60704729B1144A126998
:103430000243134B1A6104E0114A12698243104B94
:103440001A61704712494039086070470F49C864D3
:1034500070470B49C87170470948406A40F0807056
:1034600007494862704701460020054A92680A40B1
:103470000AB1012000E000207047014988727047BE
:10348000001002400000FFF8FFFFF6FE000042427D
:103490008004424200127A0000093D0092000020A0
:1034A000A200002010B50446FE48844208D1012144
:1034B000C014FFF7ADFF0021E014FFF7A9FFC4E03F
:1034C000B4F1804F08D101210846FFF7AEFF00217B
:1034D0000120FFF7AAFFB8E0F348844208D1012198
:1034E0000220FFF7A2FF00210220FFF79EFFACE0C1
:1034F000EE48844208D101210420FFF796FF002105
:103500000420FFF792FFA0E0E948844208D101219E
:103510000820FFF78AFF00210820FFF786FF94E0CC
:10352000E448844208D101211020FFF77EFF0021EA
:103530001020FFF77AFF88E0DF48844208D101219C
:103540002020FFF772FF00212020FFF76EFF7CE0B4
:10355000DA48844208D101214014FFF759FF0021C5
:103560006014FFF755FF70E0D548844209D101216E
:10357000C804FFF74DFF00214FF40020FFF748FF7C
:1035800063E0D048844209D101210805FFF740FFDC
:1035900000214FF48010FFF73BFF56E0CA488442F9
:1035A00009D101214805FFF733FF00214FF4001036
:1035B000FFF72EFF49E0C548844208D10121402091
:1035C000FFF733FF00214020FFF72FFF3DE0C04809
:1035D000844208D101218020FFF727FF00218020AD
:1035E000FFF723FF31E0BB48844208D10121801559
:1035F000FFF71BFF0021A015FFF717FF25E0B648D6
:10360000844209D101210804FFF702FF00214FF491
:103610008030FFF7FDFE18E0B048844209D1012157
:103620004804FFF7F5FE00214FF40030FFF7F0FEED
:103630000BE0AB48844208D101218804FFF7E8FE83
:1036400000214FF48020FFF7E3FE10BD0022028826
:10365000944B98420ED0994B98420BD0B0F1804FCA
:1036600008D0914B984205D0904B984202D0904B95
:10367000984204D14FF68F731A404B881A438D4BF2
:10368000984207D08C4B984204D04FF6FF431A4023
:10369000CB881A4302808B8883850B880385814BF6
:1036A00098420BD0854B984208D08B4B984205D05E
:1036B0008A4B984202D08A4B984201D10B7A0386FA
:1036C00001238382704770B5002400220023058CFB
:1036D0004FF6FE7635400584028C8388048B4FF6C6
:1036E0008F752C40B51E2C400D882C43751E2A402A
:1036F0000D892A434D882A436A4DA8420BD06F4D4D
:10370000A84208D0744DA84205D0744DA84202D0FA
:10371000734DA84213D14FF6F7752A404D892A43BD
:103720004FF6FB752A408D882A434FF6FF652B40E4
:103730004FF6FF552B408D892B43CD892B4383803A
:103740000483CD888586028470BD70B50024002274
:103750000023058C4FF6EF7635400584028C838874
:10376000048B48F6FF752C404FF6FF452C400D8822
:103770004FF6FF7606EA05252C434FF6DF752A4003
:103780000D8906EA05152A434D8806EA05152A43E0
:10379000444DA84202D0494DA8421DD14FF67F7535
:1037A0002A404D894FF6FF7606EA05152A434FF663
:1037B000BF752A408D8806EA05152A434FF6FF3566
:1037C0002B404FF2FF752B408D8906EA85052B4370
:1037D000CD8906EA85052B4383800483CD88058740
:1037E000028470BD70B5002400220023058C4FF6C2
:1037F000FF6635400584028C8388848B4FF68F7575
:103800002C404FF6FC752C400D882C434FF6FF558D
:103810002A400D894FF6FF7606EA05252A434D8892
:1038200006EA05252A431F4DA84202D0234DA8428F
:103830001DD14FF2FF752A404D894FF6FF7606EAFB
:1038400005252A434FF6FF352A408D8806EA0525CF
:103850002A434EF6FF752B404DF6FF752B408D89A0
:1038600006EA05152B43CD8906EA05152B4383800F
:103870008483CD888587028470BD70B500220023C3
:103880000024058C4EF6FF7635400584038C848831
:10389000828B48F6FF752A404FF6FF452A400D8877
:1038A00020E00000002C014000040040000800401F
:1038B000000C0040001000400014004000340140A3
:1038C000004C0140005001400054014000180040ED
:1038D000001C004000200040004001400044014026
:1038E000004801404FF6FF7606EA05252A434DF6CB
:1038F000FF752B400D8906EA05352B434D8806EAF6
:1039000005352B43FA4DA84202D0FA4DA84208D102
:103910004BF6FF752C408D894FF6FF7606EA85152C
:103920002C4384808283CD88A0F84050038470BDEE
:10393000828B4FF2FF331A408283828B4FF6FF73E4
:1039400003EA01231A4382837047F0B50C461546FB
:10395000002200210026078C4EF6FF7C07EA0C07A8
:103960000784828B018C4FF6FF7707EA043640F616
:10397000FF473A404FF6FF7707EA05273A434FF6ED
:10398000FF7707EA03373A43D94FB8420ED0D94FF1
:10399000B8420BD0B0F1804F08D0D74FB84205D015
:1039A000D64FB84202D0D64FB84206D14DF6FF7777
:1039B000394046F48057394305E047F6FF57394010
:1039C00044F48057394382830184F0BD828B4FF6E3
:1039D000F3731A408283828B0A4382837047F0B567
:1039E0000C461546002200210026078C4FF6FF6C7E
:1039F00007EA0C070784828B018C4FF6FF7707EAF2
:103A000004264FF60C773A404FF6FF7707EA031784
:103A10002F433A43B64FB8420ED0B64FB8420BD000
:103A2000B0F1804F08D0B44FB84205D0B34FB84280
:103A300002D0B34FB84206D14FF6FF57394046F493
:103A40008077394305E04FF2FF57394044F48077DF
:103A5000394382830184F0BD028B4FF2FF331A4059
:103A60000283028B4FF6FF7303EA01231A4302839A
:103A70007047F0B50C461546002200210026078C41
:103A80004FF6EF7C07EA0C070784028B018C4FF698
:103A9000FF7707EA041640F6FF473A404FF6FF77F4
:103AA00007EA03373A434FF6FF7707EA05273A4319
:103AB0008F4FB8420ED08F4FB8420BD0B0F1804F2D
:103AC00008D08D4FB84205D08C4FB84202D08C4FF1
:103AD000B84206D14FF6DF77394046F01007394338
:103AE00005E04FF65F77394044F010073943028311
:103AF0000184F0BD028B4FF6F3731A400283028BF0
:103B00000A4302837047F0B50C4615460022002197
:103B1000068C4FF6FE773E400684028B018C4FF6F2
:103B20000C7632407E1C06EA03162E433243704E5A
:103B3000B0420ED06F4EB0420BD0B0F1804F08D0E3
:103B40006D4EB04205D06D4EB04202D06C4EB042C8
:103B500006D14FF6FD76314044F00106314305E0D1
:103B60004FF6F576314044F001063143028301847B
:103B7000F0BD70B505460C465D4885420ED05D48E7
:103B800085420BD0B5F1804F08D05B48854205D007
:103B90005A48854202D05A48854200D100E000BF11
:103BA000208850B92389A28861882846FFF7ABFF97
:103BB000E1882846FFF79EFF25E0208804280AD1E7
:103BC0002389A28861882846FFF753FFE1882846A9
:103BD000FFF742FF17E0208808280AD12389A2882E
:103BE00061882846FFF7FBFEE1882846FFF7EEFED6
:103BF00009E02389A28861882846FFF7A6FEE188AC
:103C00002846FFF795FE70BD2DE9F04105460C46AC
:103C100000260127608808B9022600E00026A08857
:103C2000012801D1022700E001272088A0B92389BB
:103C3000A28861882846FFF766FFE1882846FFF7DB
:103C400059FF23893A4631462846FFF712FFE1889B
:103C50002846FFF701FF13E02389A28861882846E0
:103C6000FFF707FFE1882846FFF7F6FE23893A466B
:103C700031462846FFF747FFE1882846FFF73AFF1D
:103C8000BDE8F0810A884B881A438B881A43CB8899
:103C90001A430B891A434B891A438B891A43A0F89C
:103CA000442070474FF6FF71818000210180C18060
:103CB0004180017270470021018041808180C18074
:103CC000018141818181C181704700210180418052
:103CD000012181800021C180018170470021018084
:103CE00041808180C18001814181818170470000D4
:103CF000002C014000340140000400400008004056
:103D0000000C004021B1028842F00102028004E070
:103D100002884FF6FE731A400280704731B1B0F846
:103D2000442042F40042A0F8442005E0B0F84420CA
:103D3000C2F30E02A0F8442070471AB183890B43E6
:103D4000838102E083898B4383817047818270473E
:103D500041EA0203A0F8483070471AB183890B4347
:103D6000838102E083898B438381704701894FF609
:103D7000F8721140018170470A46002101894FF60F
:103D80008F73194011430181704730B504460D46C9
:103D900029462046FFF7F0FF208940F007002081E8
:103DA00030BD2DE9F04104460D4616461F46602DF4
:103DB00006D13B46012231462046FFF75AFE05E078
:103DC0003B46012231462046FFF79DFE294620460C
:103DD000FFF7D2FF208940F007002081BDE8F08185
:103DE00030B50C4600210189C9B24FF6FF7505EACE
:103DF0000325154325432943018130BD2DE9F041B9
:103E000005460E4617469846002443463A46314634
:103E10002846FFF7E5FF2C894FF6F870044044F080
:103E200007044FF68F70044044F070042C81BDE805
:103E3000F081F0B504460D4616461F463B46324615
:103E400029462046FFF7CCFF208940F4804020819E
:103E5000F0BD0185828270470A46002101884FF635
:103E60008F731940114301807047F0B50C46154619
:103E70001E460021002200230189028B038C4FF68D
:103E8000F877394021434FF6FC473A4040F201179A
:103E90003A434FF6DD773B404FF6FF7707EA0617C8
:103EA0002F433B43018102830384F0BD0A46002176
:103EB000018B4FF68F7319401143018370470A46F7
:103EC0000021018B48F6FF7319404FF6FF7303EA98
:103ED00002231943018370470A460021818B4FF664
:103EE0008F7319401143818370470A460021818BEB
:103EF00048F6FF7319404FF6FF7303EA0223194394
:103F00008183704721B1028842F08002028004E080
:103F100002884FF67F731A400280704721B1828871
:103F200042F00402828004E082884FF6FB731A405C
:103F30008280704721B1828842F00802828004E0CA
:103F400082884FF6F7731A408280704721B18288C9
:103F500042F00102828004E082884FF6FE731A402C
:103F6000828070470A460021018B4FF6F773194093
:103F70001143018370470A460021018B4FF2FF7302
:103F800019404FF6FF7303EA022319430183704778
:103F90000A460021818B4FF6F77319401143818344
:103FA00070470A460021818B4FF2FF7319404FF68C
:103FB000FF7303EA02231943818370470A460021F5
:103FC000018B4FF6FB7319401143018370470A467A
:103FD0000021018B4FF6FF3319404FF6FF7303EAC0
:103FE00002231943018370470A460021818B4FF653
:103FF000FB7319401143818370470A460021818B6E
:104000004FF6FF3319404FF6FF7303EA02231943BB
:10401000818370470A460021018B4FF67F73194058
:104020001143018370470A460021018BC1F30E0141
:104030004FF6FF7303EA02231943018370470A46D0
:104040000021818B4FF67F731940114381837047A4
:104050000A460021818BC1F30E014FF6FF7303EA7C
:1040600002231943818370470A460021018C4FF6D1
:10407000FD7319401143018470470A460021018CE9
:104080004FF6F77319401143018470470A46002127
:10409000018C4FF6DF7319404FF6FF7303EA0213EA
:1040A0001943018470470A460021018C4FF67F7343
:1040B00019404FF6FF7303EA021319430184704756
:1040C0000A460021018C4FF6FF5319404FF6FF734B
:1040D00003EA02231943018470470A460021018C38
:1040E0004FF2FF7319404FF6FF7303EA022319439F
:1040F000018470470A460021018C4DF6FF73194078
:104100004FF6FF7303EA023319430184704730B559
:10411000002301248C40A3B2048C9C430484048CAF
:1041200002FA01F5ADB22C43048430BD30B5002352
:1041300004248C40A3B2048C9C430484048C02FAB3
:1041400001F5ADB22C43048430BD70B503460020A8
:1041500000241846183001258D40ACB21D8CA543B3
:104160001D8409B1082909D100EB6100056825F01B
:10417000700505600568154305600EE00D1FC5F369
:104180004E052844056825F4E045056005684FF6AE
:10419000FF7606EA02263543056070BD21B102882C
:1041A00042F00202028004E002884FF6FD731A40DA
:1041B0000280704721B1028842F00402028004E0CC
:1041C00002884FF6FB731A400280704721B1828843
:1041D00042F08002828004E082884FF67F731A40AA
:1041E0008280704702884FF6F7731A400280028877
:1041F0000A430280704782884FF68F731A4082808C
:1042000082880A438280704702894FF6F8731A4009
:10421000028102890A430281704702894FF67F7347
:104220001A40028102890A430281704781847047E3
:104230008185704781867047018770478187704705
:10424000A0F84010704702884FF6FF431A400280E2
:1042500002880A43028070470146888E70470146F3
:10426000088F70470146888F70470146B1F84000BB
:1042700070470146888C70470146088D704702469A
:104280000020138A0B400BB1012000E00020704792
:10429000CA430282704730B5024600200023002442
:1042A000158A05EA0103958905EA010413B10CB1E9
:1042B000012000E0002030BDCA43028270470000A8
:1042C00010B50446FB48844209D101218803FFF759
:1042D0009FF800214FF48040FFF79AF832E0F6484B
:1042E000844209D101214804FFF79FF800214FF4CF
:1042F0000030FFF79AF825E0F048844209D1012107
:104300008804FFF792F800214FF48020FFF78DF822
:1043100018E0EB48844209D10121C804FFF785F871
:1043200000214FF40020FFF780F80BE0E5488442BD
:1043300008D101210805FFF778F800214FF480101B
:10434000FFF773F810BD2DE9F04786B005460E461D
:104350000024A24600BFA1460027B08900B100BFDB
:104360002F462C8A4CF6FF700440F08804432C82C0
:10437000AC894EF6F3100440B08831890843718946
:1043800008430443AC81AC8A4FF6FF400440B08937
:104390000443AC8201A8FEF7B4FFC648874202D1AD
:1043A000DDF810A001E0DDF80CA0A88900F40040C1
:1043B00040B10AEBCA0000EB0A1031684900B0FBBB
:1043C000F1F807E00AEBCA0000EB0A103168890037
:1043D000B0FBF1F86420B8FBF0F00401200964217F
:1043E00001FB1089A88900F4004040B1322000EBA5
:1043F000C900B0FBF1F000F00700044308E03220F0
:1044000000EB09106421B0FBF1F000F00F00044351
:104410002C8106B0BDE8F0874FF4165101600021F1
:104420008180C18001810C214181002181817047FF
:1044300010B502460020108A4FF2FF0318400B8887
:104440004C8823438C882343CC8823431843108211
:1044500010BD0021018041808180C180704721B161
:10446000828942F40052828104E082894DF6FF7312
:104470001A4082817047F0B50346002400260025CB
:10448000002040F66A17B94200D100BF1846C1F3B8
:10449000421401F01F06012707FA06F5012C01D18D
:1044A0000C3004E0022C01D1103000E014301AB1BD
:1044B00007682F43076002E00768AF430760F0BD5D
:1044C0001AB1838A0B43838202E0838A8B438382FF
:1044D0007047028A4FF6F0731A400282028A0A433A
:1044E0000282704782894FF2FF731A40828182896B
:1044F0000A438281704721B1828942F0020282819F
:1045000004E082894FF6FD731A4082817047028A67
:104510004FF6DF731A400282028A0A430282704712
:1045200021B1028A42F48042028204E0028A4BF600
:10453000FF731A4002827047C1F3080282807047FD
:1045400001468888C0F308007047818941F0010165
:1045500081817047028BD2B20283028B42EA012230
:1045600002837047028B02F47F420283028B0A436C
:104570000283704721B1828A42F02002828204E0E5
:10458000828A4FF6DF731A408282704721B1828A95
:1045900042F01002828204E0828A4FF6EF731A40E2
:1045A0008282704721B1828A42F00802828204E04E
:1045B000828A4FF6F7731A408282704721B182894E
:1045C00042F40042828103E08289C2F30E028281BA
:1045D000704721B1828A42F40062828204E0828ABA
:1045E0004FF2FF731A4082827047828A4FF6FB7344
:1045F0001A408282828A0A438282704721B1828A6B
:1046000042F00202828204E0828A4FF6FD731A4071
:104610008282704702460020B1F5007F00D100BFC2
:1046200013880B400BB1012000E00020704701F41B
:104630000072B2F5007F00D100BFCA43028070470C
:1046400070B50246002400230025002040F66A16BB
:10465000B14200D100BFC1F3421501F01F03012692
:1046600006FA03F3012D02D19689334006E0022DAC
:1046700002D1168A334001E0968A33400C1201269B
:1046800006FA04F41688344013B10CB1012000E09E
:10469000002070BD10B50022002340F66A14A1422C
:1046A00000D100BF0A1201249440A3B2DC4304806D
:1046B00010BD0000003801400044004000480040A8
:1046C000004C0040005000401CB50C46064B7B449B
:1046D00069460090204600F0CEF804460020694666
:1046E00000F0DCF820461CBDCB010000704770478D
:1046F000704710B500F0BAFA006810BD10B5044656
:1047000000F0B4FA046010BD70B504468569006815
:10471000C10601D5302600E02026C00707D070BDB5
:10472000D4E9012130469047206A401C20626D1E6A
:10473000F6D570BD70B5044685690078C00707D10D
:1047400070BDD4E9012120209047206A401C2062DE
:104750006D1EF6D570BD09684A0501D540B2704797
:10476000C905FCD500B2704709684A0501D5C0B239
:104770007047C905FCD580B2704770B50C46054638
:10478000012A05D02878800600D5EA69002302E0D6
:10479000012305E05B1C934202D2E05C0028F9D1C2
:1047A000A869E618C01AA861286A18442862284631
:1047B000FFF7AAFF04E0D5E9012114F8010B9047A7
:1047C000B442F8D32846FFF7B5FF70BD2DE9F0419C
:1047D0000646002410687529314616A510D0FFF74B
:1047E000BAFF002802DA404213A507E031688A07C1
:1047F00001D512A502E0490704D511A5012401E065
:10480000FFF7B2FF00210A2206F1240709E0B0FBFE
:10481000F2FCB0FBF2F302FB1C0030307854184677
:10482000491C0028F3D123462A463046BDE8F04112
:1048300000F065BA000000002D0000002B00000011
:104840002000000011680268006A530501D5087055
:104850000AE0D30501D5088006E0130603D5C21788
:10486000C1E9000200E008600120704701694A1CAC
:1048700002610878704700B58FB0CDE901310021A1
:10488000059105497944CDE903101146684600F0C9
:1048900029F90FB000BD0000E5FFFFFF0A6802F82C
:1048A000010B0A60704700002DE9FF5F15468A463C
:1048B0000446DFF8AC80F8440027D8E900103E46F3
:1048C000CDE9001010E03AF816106A4602A800F090
:1048D00027FE411C07D02178890603D5E2693918E3
:1048E00091420DD80744761C2078800602D5E069F5
:1048F000B84205DDAE42E6DB3AF816000028E2D108
:10490000A069C01BA0612046FFF7FEFED8E9001099
:10491000CDE90010002017E03AF818106A4602A806
:1049200000F0FEFDB0F1FF3F81460BD000250DF1F8
:10493000080B05E0D4E901211BF8050090476D1C28
:104940004D45F7D308F10100B0428046E4DB206A10
:10495000384420622046FFF7EDFEBDE8FF9F0000CF
:10496000E63700002DE9F0418046D21D22F0070213
:104970000025D2E90002F52915A614D0011E72F116
:10498000000106DA0023D0EB030063EB020211A65C
:1049900008E0D8F800108B0701D50FA602E0490700
:1049A00001D50EA601251146002408F1240704E0D4
:1049B00000F060F930323A55641C50EA0102F7D138
:1049C0002B46324621464046BDE8F04100F097B9FB
:1049D000000000002D0000002B000000200000005F
:1049E00030B4002100F1240408E002F00705D208E9
:1049F000303542EA4372DB086554491C52EA03052C
:104A0000F3D10468002310A2250708D504F0200480
:104A10000C4304D0C46901230CA2641EC46130BCE1
:104A200000F06DB910B5044621461068FFF79CFEF2
:104A300002462046BDE810400023D1E7D21D22F0F7
:104A40000701D1E90023CBE700000000300000009F
:104A5000F0B40D460188090502D5214C7C4402E0E2
:104A60001F4C7C440E34002100F1240608E002F0C3
:104A70000F071209E75D42EA03721B097754491CCC
:104A800052EA0307F3D102780023120704D5702DF0
:104A900006D009B1022311342246F0BC00F02FB930
:104AA00001231034F8E770B504460D46214610681E
:104AB000FFF75AFE024629462046BDE87040002313
:104AC000C6E7D21D22F00703D3E90023C0E703683D
:104AD000126843F0200303600823C3610023B7E793
:104AE000483600002DE9F05F894604464FF0000A81
:104AF000DFF874B1FB44C0F820A02046E168884785
:104B0000002874D0252806D0D4E901219047206AD6
:104B1000401C2062F1E700265F462046E168884796
:104B20002028054607DB312D05D2781910F8200C16
:104B300008B10643F1E7B00701D526F00406C4F832
:104B40001CA00027C4F818A02A2D09D0284601F07F
:104B50002BFD38B304EB8708303DC8F8185019E036
:104B600059F8041B204604EB87029161E1688847ED
:104B7000012F054618D1E069002820DA26F020062A
:104B80001DE0D8F8180000EB800005EB400030383D
:104B9000C8F818002046E1688847054601F004FD82
:104BA0000028EED1012F0AD02E2D08D12046E16831
:104BB00088477F1C0546022F46F02006C4DBA0690B
:104BC000002803DA404246F00106A061F00701D058
:104BD00026F010066C2D0BD0682D09D04C2D39D045
:104BE0006A2D35D0742D35D07A2D33D016E038E0CB
:104BF000E1682F4620468847B842054609D16C2F08
:104C000026D04FF48060E168064320468847054679
:104C100004E06C2F1AD04FF4807006430DB3A5F159
:104C20004100192802D8203546F400664A46294634
:104C3000204626604E46FBF7B5FA80B101280BD01E
:104C4000F61D26F0070000F1080956E74020E4E7CA
:104C50008020D8E70020D6E706F104094DE7284672
:104C600052E7206ABDE8F09FD83500000048704741
:104C7000A800002030B5B0F10A024FEA900E71F1A1
:104C800000034EEA817EB0EB0E0061EB91014FEA2A
:104C9000101E4EEA017E10EB0E0041EB11114FEA9F
:104CA000102E4EEA016E10EB0E0041EB11214FEA7F
:104CB000104E4EEA014E10EB0E0041EB1141401830
:104CC00041F100014FEAD00040EA41704FEAD101C2
:104CD00010EB80054FEA810444EA907444EB010430
:104CE0006D1944EB0404521BA3414FF0000348BF6D
:104CF0000A3200D530BD401C41F1000130BD2DE924
:104D0000F0470D4699469246044600F12408016892
:104D1000880604D5E06921F01001216000E001203F
:104D2000A84201DD471B00E00027A1697A1902EBC8
:104D30000900081AA0612078C00602D42046FFF7B7
:104D4000E3FC002608E0D4E901211AF806009047A8
:104D5000206A401C761C20624E45F4DB2078C00699
:104D60000AD52046FFF7D0FC06E0D4E90121302027
:104D70009047206A401C2062381EA7F10107F4DC2E
:104D800007E0D4E9012118F805009047206A401C8B
:104D90002062281EA5F10105F3DC2046FFF7CAFCBE
:104DA0002078000602D50220BDE8F0870120FBE74D
:104DB00070472DE9FF4F0C461E464FF0FF378BB072
:104DC000D2E90001DDF860800A908A46C1F30A55F5
:104DD00005B93D46002108464FF00000BAF1000F2A
:104DE00000F4400005DA00EB80004FF4400101EAD6
:104DF00050004FEA9059B9F1010F00DDB9460A9809
:104E000050EA4A000ED044F61050A5F2FF35454353
:104E10002F14B8F1000F1ED07542291E1EDDC9F1F6
:104E200000021CE0B8F1010F4FF0000001D030216A
:104E300003E0F24305E02154401CB042FBDB304666
:104E40000022002121540B99C1F80880C1E90020FB
:104E50000FB0BDE8F08FBD1B6D1CDEE74A4600DADF
:104E6000694206A800F0F2FB06AB93E8070003AB2B
:104E700083E8070050460A9900F0A7FC8DE8070078
:104E8000A0F500501F3800900398002D09DD42F274
:104E90001F014A46084403A90390684600F006FF34
:104EA00008E0A0F500504A461F3803A90390684661
:104EB00000F010FF8DE807000004000C03D04FF055
:104EC000FF30410800E01046B8F1000F03D0002287
:104ED000009215461EE0751E05D4FFF7CBFE30325A
:104EE00062556D1EF9D5B3460122084302D0002257
:104EF0007F1C04E02078302801D100227F1E002A88
:104F0000099786D01DE0112D07DAFFF7B3FE303286
:104F100062556D1C50EA0102F5D1084302D0009899
:104F2000C8B10EE00021681E05E0235C625C63549A
:104F30002254401E491C8142F7DBAB46A81B401E91
:104F40000990002004F80B000B98099AC0F808801B
:104F5000C0E9002B7CE711264FF0000859E72DE946
:104F6000F04F88460446D21D22F0070191B0D1E9E6
:104F70000001CDE90A0100F0E3FF02460B98C00FE3
:104F800001D02D2007E02068810701D52B2002E009
:104F9000202101EAC000032A099001D0072A05DB7D
:104FA00003464146204600F011FB0BE120788006C5
:104FB00001D5E06900E00620B8F1650F814606D012
:104FC000B8F1660F18D0B8F1670F70D131E000204A
:104FD000B9F1110F009001DB112301E009F1010388
:104FE0000AAA01A90CA8FFF7E4FEDDE90C7000266F
:104FF00009F10105834647E001204B4600904FF040
:1050000000470AAA01A90CA8FFF7D3FEDDE90DB0FD
:105010000C995D46002610B909F101000D18B9EB95
:10502000050003D4C0F1FF3609F10105A5EB090025
:105030002BE0B9F1010F01DA4FF001090020B9F1BD
:10504000110F0090484601DD112300E003460AAA33
:1050500001A90CA8FFF7ADFEDDE90C704D46002656
:105060008346207800070AD4AB4500DA5D4601A8E4
:10507000012D04DD411911F8011C302907D04F45DD
:1050800002DA17F1040F04DA012082460FE06D1EE8
:10509000EEE7002F02DCED1B3E4403E0781CA84243
:1050A00000DD7D1CB81B00F1010A4FF0004720789D
:1050B000000703D4AA4501DB4FF0FF3A0021B7F106
:1050C000004F0DF143088DF8431024D002202B230C
:1050D000002F01DA7F422D230A21021EA0F10100D8
:1050E00000DC5FB197FBF1FC97FBF1F201FB1C7C4C
:1050F00017460CF1300C08F801CDEEE7A8F10100DD
:1051000003702188090501D5452100E06521A0F142
:10511000010800F8011C09980FA9A1EB0807FF1D61
:1051200000B10120411901EBEA70A1693844081A65
:10513000401EA0612078C00602D42046FFF7E4FAA2
:10514000099828B1D4E901219047206A401C2062C7
:105150002078C00622D52046FFF7D6FA1EE0002EA2
:1051600004DBB34502DD01A8805D00E03020D4E916
:1051700001219047206A401C2062761CAAF10100A0
:105180005FEA000A0AD100F01DFAC0680168405CBD
:10519000D4E901219047206A401C2062281EA5F115
:1051A0000105DCDC07E0D4E9012118F8010B904788
:1051B000206A401C2062381EA7F10107F3DC20465C
:1051C000FFF7B8FA032011B043E600002DE9F04FD5
:1051D00004460D46D21D22F0070089B0D0E90092A6
:1051E00048461746394600F0ABFE0246F80F01D09C
:1051F0002D2307E02068810701D52B2302E0202121
:1052000001EAC0038DF820300BB1012000E000203E
:10521000032A824601D0072A04DB2946204600F0F3
:10522000D5F93DE12078800601D40D2500E0E5693F
:10523000C7F30A560D2D49DA00214FEA175B0846DD
:105240004FF00000002F00F4400007DA00EB800070
:105250004FF4400100EBD07001EA60008115012994
:1052600001DD4FF0FF3100224FEA850CBCF1180F31
:1052700006D31346ACF118004FF08052C24003E051
:105280004FF4801323FA0CF30CF10C0CBCF1200F3B
:1052900004D3ACF1200C09FA0CF001E007FA0CF091
:1052A00000294FF0004801DD18B90FE00ED140454C
:1052B0000CD319EB02095F4121B9404502D19F434C
:1052C00029EA0209BBEB175F00D0761C2088000595
:1052D00002D57B48784402E079487844193808AA16
:1052E000302302F80A30037C0AF10101002E0AF192
:1052F000020A53546A4602DC4FF0300101E04FF0DD
:1053000031014FF001088DF8001002D0A6F2FF36EF
:1053100003E059EA470100D06A4E002D02DC2178F3
:10532000090704D54FF002082E218DF80110C4465C
:1053300000210BE0C7F303433F01C35C491C6D1E12
:1053400002F80830052908F1010801DA002DF1DC26
:1053500000210CE000EB1973491C1B786D1E082915
:1053600002F808304FEA091908F1010801DA002DA6
:10537000F0DC2178890602D514E0A8F10108E045A7
:1053800005DD02EB080111F8011C3029F5D0B8F158
:10539000000F07DD02EB080111F8011C2E2901D1D5
:1053A000A8F10108002D05DD3E2102F808106D1E50
:1053B00008F10108407C002E02F8080008F10108FD
:1053C00004DA2D20764202F8080002E02B2002F8D1
:1053D00008000A214FF47A70864208F101080BDBBD
:1053E00096FBF0F3303302F8083096FBF0F308F147
:1053F000010800FB136601E0642E0CDB642096FBC1
:10540000F0F3303302F8083096FBF0F308F10108AE
:1054100000FB136601E00A2E06DB96FBF1F030304C
:1054200002F8080008F1010896FBF1F001FB10609A
:10543000303002F80800A16908F1010808EB050204
:1054400002EB0A00081AA0612078C00602D42046A8
:10545000FFF75AF9216A08AE01EB0A00206204E066
:10546000D4E9012116F8010B9047BAF1010AF7D2ED
:105470002078C00602D52046FFF746F96E4609E0BF
:1054800016F8010B3E280FD0D4E901219047206A7D
:10549000401C2062B8F10108F2D22046FFF74AF919
:1054A00009B00320BDE8F08F206A2844206203E0A1
:1054B000D4E90121302090476D1EEBD3F8E70000BE
:1054C000432F000002FCFFFF10B5436913B1AFF397
:1054D000008001E0FFF751F9012010BD127800F1C2
:1054E00024010A7000224A700122EDE711684FF092
:1054F000FF32E9E710B5436913B1AFF3008001E073
:10550000FFF7D2F9012010BD128800F12401828436
:105510000022C2840122EDE711684FF0FF32E9E773
:1055200070B516460C46054600F044F8036893F83B
:105530000101012806D0FF2C0FD8185D68B10120A9
:105540002C7070BDD3F807013246214603F20713D1
:1055500003442846BDE8704018474FF0FF3070BD47
:1055600000487047A80000207546FFF7F9FFAE46D7
:1055700005006946534620F00700854618B020B55F
:10558000FDF790FBBDE820404FF000064FF000070C
:105590004FF000084FF0000B21F00701AC46ACE8DB
:1055A000C009ACE8C009ACE8C009ACE8C0098D4648
:1055B0007047000010B500F005F8001D10BD00BFD9
:1055C0004916000000487047C80000202DE9F0414E
:1055D0001F46044603260168072A01F4006004DB25
:1055E00008B116A505E016A503E008B115A500E071
:1055F00015A521F010002060A069C01EA0610FB1A8
:10560000401EA0612046FFF77FF84FB1D4E9012189
:1056100038469047206A401C2062C01C206206E089
:10562000206AFAE7D4E9012115F8010B9047761EAC
:10563000F8D22046FFF77EF8BDE8F0814E414E00DB
:105640006E616E00494E4600696E66002DE9F047B6
:10565000814616468AB0334878440DC88DE80D005F
:1056600030487844801C03AC0DC884E80D0041F636
:105670009B300844372190FBF1F290FBF1F5A5F146
:10568000800501FB12041B3C02D56442012000E0AE
:105690000020DFF890A080460027FA44AAF1BE0A55
:1056A0000DE0E00709D03246684607EB47010AEBF8
:1056B000810100F00FFB8DE8070064107F1C002CB7
:1056C000EFD1184F7F44AC3F18E0E80714D007EB48
:1056D00004100DF1180A90E80E008AE80E00C06868
:1056E000F04201D198190890324606A903A800F0AB
:1056F000F1FA03AB83E807006D10641C002DE4D1C0
:1057000032466946B8F1000F03A802D000F0CEFA85
:1057100001E000F0DFFAC9E90001C9F808200AB089
:10572000BDE8F087502C000010B50446AFF30080B0
:105730002046BDE81040FAF798BD00004FF0013C4C
:1057400050F8042B51F8043B9A4221D1A2EB0C03F0
:10575000934313EACC1317D150F8042B51F8043BB0
:105760009A4215D1A2EB0C03934313EACC130BD14D
:1057700050F8042B51F8043B9A4209D1A2EB0C03D8
:10578000934313EACC13DBD04FF00000704700BF07
:10579000D01A01BAB1FA81F101F0180122FA01F030
:1057A000CB40C1F12001DBB2C0B2C01A2CFA01F328
:1057B000D11A914311EAC311E6D17047014918206B
:1057C000ABBEFEE72600020070475FEA400C08BF50
:1057D00091F0000F4FEA8C234FEAC12243EA515166
:1057E0004FEA1C5018BF00F5F0404FEA300018BFD8
:1057F00041F000415FEA6C5C00F02980BCF1FF3FA2
:1058000008BF40F080407047130C06BF12044FF0F1
:10581000100C4FF0000C130E04BF12020CF1080C18
:10582000130F04BF12010CF1040C930F04BF92007C
:105830000CF1020CD30F04BF52000CF1010C114605
:105840004FF00002A0F11F00A0EB0C00704711F018
:10585000004F08BF704731F000413FF4D5AF0B0C4B
:1058600006BF09044FF0100C4FF0000C0B0E04BFE4
:1058700009020CF1080C0B0F04BF09010CF1040C18
:105880008B0F04BF89000CF1020CCB0F04BF490041
:105890000CF1010CCCF12003A0EB0C0022FA03F375
:1058A00002FA0CF241EA030100F10100704720F016
:1058B0007F4C80EA030023F07F47ACEB070303F53E
:1058C0007C5300F0004003F1FF032DE980494FEACB
:1058D000154B09B44FEA144325EA0B4E24EA03485A
:1058E0000FF2042606EB132749083E785FEA3202DE
:1058F00003FB0667C7F5000707FB06F64FEA5437B8
:105900004FEAD64606F1020607FB066CCCF1005CB6
:105910004FEA1C472CEA074C07FB06F40CFB06F584
:1059200004EB15464FEA961634BF00204FF00040B6
:105930004FEAD13706FB07FC4FEA1C4C0CFB0BF778
:10594000D21B03FB0CF761EB07010CFB0EF7B0EB6E
:10595000074072EB17420CFB08F734BFA2EB07427B
:10596000B2EB074261EB17414FEA0C444FEA910753
:1059700006FB07FC4FEA1C4C0CFB0BF7B0EBC740D7
:1059800072EB573203FB0CF734BFA2EBC742B2EB0A
:10599000C74261EB57310CFB0EF7B0EBC70072EB5F
:1059A00057720CFB08F734BFA2EBC702B2EBC70279
:1059B00061EB5771039F4FEA816141EA921104EB59
:1059C000CC044FEAD1374FEA826206FB07FC42EA79
:1059D00090124FEA80604FEA1C4C0CFB0BF7D21B75
:1059E00003FB0CF761EB07010CFB0EF7B0EB074074
:1059F00072EB17420CFB08F734BFA2EB0742B2EB85
:105A0000074261EB17414FEA8C554FEA910704EBCF
:105A10009C2406FB07FC4FEA1C4C0CFB0BF7B0EB7D
:105A2000C74072EB573203FB0CF734BFA2EBC742FF
:105A3000B2EBC74261EB57310CFB0EF7B0EBC7007E
:105A400072EB57720CFB08F734BFA2EBC702B2EB44
:105A5000C70261EB577115EB4C254FEA816141EAB2
:105A600092114FEA82624FEAD13742EA901206FB66
:105A700007FC44F100044FEA80604FEA1C4C0CFB29
:105A80000BF7D21B03FB0CF761EB07010CFB0EF7C6
:105A9000B0EB074072EB17420CFB08F734BFA2EBE8
:105AA0000742B2EB074261EB174115EB1C154FEAB9
:105AB000813141EA92414FEA823242EA90424FEA12
:105AC00080304FEA0C7644F1000448EA03434EEA82
:105AD0000B484FF0000EB2EB080C71EB030724BF2C
