:020000040800F2
:10000000F8080020CD010008910900084F040008FD
:100010009D070008870200088B12000800000000FE
:10002000000000000000000000000000310B00088C
:100030008B02000800000000190A0008450C0008A7
:10004000E7010008E7010008E7010008E7010008F0
:10005000E7010008E7010008E7010008E7010008E0
:10006000E7010008E7010008E7010008E7010008D0
:10007000E7010008E7010008E7010008E7010008C0
:10008000E7010008E7010008E7010008E7010008B0
:10009000E7010008E7010008E7010008E7010008A0
:1000A000E7010008E7010008E7010008E701000890
:1000B000A90C0008E7010008E7010008E7010008B3
:1000C000E7010008E7010008E7010008E701000870
:1000D000E70100085D0F000801100008411000084A
:1000E000E7010008E7010008E7010008E701000850
:1000F000E7010008E7010008E7010008E701000840
:10010000E7010008E7010008E7010008E70100082F
:10011000E7010008E7010008E7010008E70100081F
:10012000E7010008E7010008E7010008E70100080F
:1001300000F002F800F03AF80AA090E8000C8244BF
:100140008344AAF10107DA4501D100F02FF8AFF29C
:10015000090EBAE80F0013F0010F18BFFB1A43F0A5
:1001600001031847BC130000DC130000103A24BF41
:1001700078C878C1FAD8520724BF30C830C144BF0C
:1001800004680C607047000000230024002500264E
:10019000103A28BF78C1FBD8520728BF30C148BFEA
:1001A0000B6070471FB51FBD10B510BD00F031F8D2
:1001B0001146FFF7F7FF01F01DF900F04FF803B407
:1001C000FFF7F2FF03BC00F057F800000948804732
:1001D00009480047FEE7FEE7FEE7FEE7FEE7FEE729
:1001E000FEE7FEE7FEE7FEE704480549054A064B41
:1001F00070470000490C000831010008F802002097
:10020000F8080020F8040020F80400207047704728
:100210007047754600F02CF8AE4605006946534617
:1002200020F00700854618B020B5FFF7DDFFBDE8D8
:1002300020404FF000064FF000074FF000084FF04D
:10024000000B21F00701AC46ACE8C009ACE8C009DE
:10025000ACE8C009ACE8C0098D46704710B504464B
:10026000AFF300802046BDE81040FFF7A8BF0000B4
:10027000004870479802002001491820ABBEFEE7F5
:1002800026000200704700BFFEE770472DE9F041ED
:10029000024600250026002000230024002791F8B4
:1002A00003C00CF00F0591F803C00CF0100CBCF16A
:1002B000000F03D091F802C04CEA050591F800C088
:1002C000BCF1000F31D0146800202BE04FF0010C7E
:1002D0000CFA00F3B1F800C00CEA03069E4220D1EC
:1002E00083004FF00F0C0CFA03F7BC4305FA03FC34
:1002F0004CEA040491F803C0BCF1280F06D14FF07A
:10030000010C0CFA00FCC2F814C00AE091F803C01A
:10031000BCF1480F05D14FF0010C0CFA00FCC2F8FB
:1003200010C0401C0828D1D31460B1F800C0BCF143
:10033000FF0F34DD546800202EE000F1080C4FF070
:10034000010808FA0CF3B1F800C00CEA03069E425B
:1003500021D183004FF00F0C0CFA03F7BC4305FAD0
:1003600003FC4CEA040491F803C0BCF1280F05D14A
:1003700000F1080C08FA0CF8C2F8148091F803C0D8
:10038000BCF1480F07D100F1080C4FF0010808FA42
:100390000CF8C2F81080401C0828CED35460BDE889
:1003A000F0810000F0B50A4600230024002100255A
:1003B00000F00046B6F1004F02D11D4EF16901E098
:1003C0001B4E7168C0F3034583B200F44016B6F5C6
:1003D000401F08D121F07061154E766826F07066D6
:1003E000134F7E6012E000F48016B6F5801F06D130
:1003F000032606FA05F4A14341F0706106E0460DBC
:10040000360103FA06F6B14341F0706122B1460DA0
:10041000360103FA06F6314300F00046B6F1004F0C
:1004200002D1034EF16101E0014E7160F0BD0000A8
:10043000000001400246002093680B400BB10120F0
:1004400000E000207047416170470161704700BFC4
:10045000FEE7000008B50121082000F0EFFA0320B4
:10046000ADF8000048208DF8030069460648FFF704
:100470000DFFC020ADF8000048208DF8030069464C
:100480000248FFF703FF08BD000C014000080140CF
:1004900010B5044614B101202B4908702A48007891
:1004A000002835D002212948FFF7C4FF70B101218F
:1004B0002648FFF7BFFF48B180212548FFF7BAFF64
:1004C00020B140212248FFF7B5FF08BB0A2000F009
:1004D0006BFF00201C49087002211C48FFF7AAFF8F
:1004E00008B9072010BD01211848FFF7A3FF08B97C
:1004F0000820F7E780211648FFF79CFF08B909207C
:10050000F0E740211248FFF795FFD8B90A20E9E744
:1005100002210E48FFF78EFF012813D101210B485D
:10052000FFF788FF01280DD180210948FFF782FFDE
:10053000012807D140210648FFF77CFF012801D19F
:10054000014908700020CDE724000020000C014084
:10055000000801402DE9F04104460D4616461F46AD
:10056000DDF818802CB94FF480511E48FFF76BFF5F
:1005700004E04FF480511B48FFF767FF2DB94FF49B
:1005800080511948FFF75FFF04E04FF4805116488F
:10059000FFF75BFF2EB94FF400511348FFF753FFED
:1005A00004E04FF400511048FFF74FFF2FB94FF40C
:1005B00080410D48FFF747FF04E04FF480410A48AF
:1005C000FFF743FFB8F1000F05D14FF40041064893
:1005D000FFF739FF04E04FF400410348FFF735FF10
:1005E000BDE8F08100080140000C014008B5012180
:1005F0001B48FFF7D7FE01210D2000F01FFA18203D
:10060000ADF8000010208DF8030003208DF80200E3
:1006100069461448FFF73AFE01211148FFF7C2FE70
:1006200008211048FFF70FFF10210E48FFF70BFFBE
:100630004FF40040ADF8000010208DF803000320B7
:100640008DF8020069460848FFF720FE01210448A2
:10065000FFF7A8FE4FF400410348FFF7F4FE08BD82
:1006600000023000000C01400008014008B50121E3
:10067000082000F0E3F94FF26000ADF80000102010
:100680008DF8030003208DF8020069461B48FFF730
:10069000FDFD4FF480511948FFF7D5FE4FF400518E
:1006A0001648FFF7D0FE4FF480411448FFF7CBFE09
:1006B0004FF400411148FFF7C6FE20210F48FFF715
:1006C000C2FE40210D48FFF7BEFE0121042000F0CC
:1006D000B5F94FF48050ADF8000010208DF80300FC
:1006E00003208DF8020069460548FFF7CFFD4FF45F
:1006F00080510348FFF7A7FE08BD0000000C014031
:100700000008014070B506460C46154646B9012161
:100710001248FFF747FE10211148FFF794FE07E04B
:1007200001210E48FFF73EFE10210D48FFF78DFE18
:1007300024B920210A48FFF786FE03E0202108485B
:10074000FFF783FE25B940210548FFF77CFE03E053
:1007500040210348FFF779FE70BD00000002300021
:10076000000C014010B504464CB901210948FFF7BF
:1007700019FE4FF400410848FFF765FE08E001212B
:100780000448FFF70FFE4FF400410348FFF75DFEFA
:1007900010BD0000000230000008014000BFFEE76D
:1007A00000B587B0012144F2040000F047F94FF48E
:1007B0000070ADF8180003208DF81A0018208DF88D
:1007C0001B0006A91D48FFF761FD4FF48060ADF8DE
:1007D000180004208DF81B0006A91848FFF756FDE5
:1007E00025208DF8040003208DF805008DF8060003
:1007F00001208DF8070001A800F0CCF84FF4165046
:1008000002900020ADF80C00ADF80E00ADF810001D
:10081000ADF814000C20ADF8120002A9084800F051
:10082000BFFC012240F22551054800F094FC012153
:10083000034800F04DFC07B000BD00000008014077
:100840000038014000B587B00121480400F0E6F807
:100850000121042000F0F2F80420ADF81800032074
:100860008DF81A0018208DF81B0006A91C48FFF708
:100870000DFD0820ADF8180004208DF81B0006A916
:100880001748FFF703FD26208DF8040003208DF89C
:1008900005008DF8060001208DF8070001A800F082
:1008A00079F84FF4165002900020ADF80C00ADF826
:1008B0000E00ADF81000ADF814000C20ADF81200D9
:1008C00002A9084800F06CFC012240F225510548BD
:1008D00000F041FC0121034800F0FAFB07B000BD25
:1008E000000801400044004000B587B001218804A1
:1008F00000F094F80121082000F0A0F84FF4806087
:10090000ADF8180003208DF81A0018208DF81B0090
:1009100006A91D48FFF7BAFC4FF40060ADF81800B7
:1009200004208DF81B0006A91748FFF7AFFC27200D
:100930008DF8040003208DF805008DF806000120D5
:100940008DF8070001A800F025F84FF4165002902A
:100950000020ADF80C00ADF80E00ADF81000ADF8B9
:1009600014000C20ADF8120002A9084800F018FC91
:10097000012240F22551054800F0EDFB012103481A
:1009800000F0A6FB07B000BD000C0140004800408D
:100990007047000070B5002100230F22C47804B313
:1009A000154C246804F4E064C4F5E064210AC1F144
:1009B0000403CA40447804FA03F1847814402143C4
:1009C00009010E4C0678A155047804F01F05012496
:1009D000AC4005786D11AD0005F1E025C5F800418A
:1009E00009E0047804F01F050124AC40044D0678AA
:1009F000761145F8264070BD0CED00E000E400E003
:100A000080E100E002490143024A116070470000A2
:100A10000000FA050CED00E07047000029B1064A1D
:100A2000D2690243044BDA6104E0034AD26982438B
:100A3000014BDA61704700000010024029B1064AFC
:100A400092690243044B9A6104E0034A926982432B
:100A5000014B9A61704700000010024030B5002140
:100A60000022002400232D4D6D6805F00C0121B1FA
:100A7000042905D0082923D105E0294D056022E08D
:100A8000274D05601FE0254D6D6805F47012234D5C
:100A90006D6805F48034022505EB92421CB9214DA6
:100AA000554305600BE01D4D6D6805F400351DB123
:100AB0001C4D5543056002E0194D5543056002E0A9
:100AC000174D056000BF00BF144D6D6805F0F001C3
:100AD0000909154D6B5C0568DD4045600F4D6D687B
:100AE00005F4E061090A104D6B5C4568DD408560E6
:100AF0000A4D6D6805F46051C90A0B4D6B5C456881
:100B0000DD40C560054D6D6805F44041890B074D1A
:100B10006B5CC568B5FBF3F5056130BD00100240A4
:100B200000127A0000093D002A0000203A0000204F
:100B3000704710B500F002F810BD00000CB50020A1
:100B4000019000903348006840F4803031490860DB
:100B500000BF3048006800F4003000900198401C4D
:100B60000190009818B90198B0F5A06FF1D129480B
:100B7000006800F4003010B10120009001E0002076
:100B800000900098012843D12348006840F01000ED
:100B9000214908600846006820F003000860084604
:100BA000006840F0020008601A484068194948602F
:100BB0000846406848600846406840F480604860E5
:100BC0000846406820F47C1048600846406840F4BD
:100BD000E81048600846006840F08070086000BF78
:100BE0000C48006800F000700028F9D009484068FF
:100BF00020F00300074948600846406840F00200C2
:100C0000486000BF0348406800F00C000828F9D194
:100C10000CBD00000010024000200240042808D152
:100C20004FF0E021096941F004014FF0E022116129
:100C300007E04FF0E021096921F004014FF0E022C4
:100C4000116170477047000010B51348006840F00C
:100C500001001149086008464068104908400E49E3
:100C60004860084600680E4908400B49086008467D
:100C7000006820F4802008600846406820F4FE00E8
:100C800048604FF41F008860FFF753FF4FF000608B
:100C90000449086010BD0000001002400000FFF889
:100CA000FFFFF6FE08ED00E008B50121880700F01F
:100CB00044F9002831D00121880700F03BF99A4817
:100CC0000078401C9849087098480078401C974963
:100CD000087095480078022802D1002092490870D7
:100CE00092480078032802D100209049087090486B
:100CF0000088302816D100200346024601460090A5
:100D0000FFF728FC002211461046FFF7FBFC86483F
:100D1000007818B10120FFF725FD03E10020FFF75F
:100D200021FDFFE08248008831280FD10020FFF725
:100D300019FD00200346024601210090FFF70AFC3E
:100D4000002211461046FFF7DDFCEBE078480088F2
:100D500032280FD10020FFF705FD002001230246B5
:100D600001460090FFF7F6FB002211461046FFF700
:100D7000C9FCD7E06E480088332810D10020FFF767
:100D8000F1FC012000231A46194600901846FFF78F
:100D9000E1FB002211461046FFF7B4FCC2E06448B4
:100DA000008834280FD10020FFF7DCFC0020034628
:100DB000012201460090FFF7CDFB002211461046AC
:100DC000FFF7A0FCAEE05A480088352830D100205B
:100DD000FFF7C8FC5548007860B90020034602467A
:100DE00001210090FFF7B6FB002211461046FFF7E5
:100DF00089FC97E04D48007801280CD100231A4661
:100E0000194600901846FFF7A5FB00221146104630
:100E1000FFF778FC86E0002001230246014600909F
:100E2000FFF798FB002211461046FFF76BFC79E0B4
:100E30003F480088362830D10020FFF793FC3B481C
:100E4000007860B900200346024601210090FFF7B8
:100E500081FB002211461046FFF754FC62E0334844
:100E6000007801280CD100200346012201460090A1
:100E7000FFF770FB002211461046FFF743FC51E0DC
:100E800000200123024601460090FFF763FB002289
:100E900011461046FFF736FC44E025480088372805
:100EA00010D10020FFF75EFC0020034602460146F9
:100EB00000900120FFF74EFB002211461046FFF77D
:100EC00021FC2FE00020FFF74DFC1848007860B9A6
:100ED00000200346024601460090FFF73BFB00223C
:100EE00011460120FFF70EFC1CE010480078012895
:100EF0000CD100200346024601460090FFF72AFB72
:100F0000002201211046FFF7FDFB0BE00020034605
:100F1000024601460090FFF71DFB01220021084612
:100F2000FFF7F0FB08BD000020000020210000209A
:100F300016000020CA430282704730B502460020E6
:100F400000230024158A05EA0103958905EA0104B6
:100F500013B10CB1012000E0002030BD10B540F20B
:100F60002551184800F0CDF850B3164800F084F928
:100F7000C4B21548008800F4004008BB5B2C06D1C1
:100F80001148008840F480400F49088018E00E485E
:100F9000008800F4804098B15D2C06D10A48008892
:100FA00040F40040084908800AE007480088C0F380
:100FB0000D0006490C5404480088401C0249088072
:100FC00010BD000000380140180000204000002043
:100FD00070B505460E46002400BF0CE0295D0748A9
:100FE00000F04FF900BF4021044800F07DF80128CF
:100FF000F9D1601C84B2B442F0DB70BD003801400E
:1010000010B540F225510C4800F07BF890B10A4829
:1010100000F032F9C4B22146074800F032F9302C12
:1010200004D120210548FFF70EFA03E020210348F0
:10103000FFF70BFA10BD000000440040000801401B
:1010400010B540F225511D4800F05BF820B31C4854
:101050000088401C1A490880184800F00DF9C4B2F5
:1010600017480088032190FBF1F201FB12000228CF
:1010700005D1144804800146087800F009F91248A7
:10108000008800F4004038B95B2C06D10E48008877
:1010900040F480400C4908800FE00B48008800F4C1
:1010A000804050B15D2C06D10748008840F40040D4
:1010B0000549088001E00548047010BD0048004063
:1010C00014000020160000201A0000200801002053
:1010D00021B1828942F40052828104E082894DF676
:1010E000FF731A408281704702460020B1F5007FED
:1010F00000D100BF13880B400BB1012000E000209D
:10110000704770B50246002400230025002040F6F9
:101110006A16B14200D100BFC1F3421501F01F03AE
:10112000012606FA03F3012D02D19689334006E029
:10113000022D02D1168A334001E0968A33400C1208
:10114000012606FA04F41688344013B10CB10120CC
:1011500000E0002070BDF0B5034600240026002505
:10116000002040F66A17B94200D100BF1846C1F30B
:10117000421401F01F06012707FA06F5012C01D1E0
:101180000C3004E0022C01D1103000E014301AB110
:1011900007682F43076002E00768AF430760F0BDB0
:1011A0002DE9F04786B005460E460024A24600BF52
:1011B000A1460027B08900B100BF2F462C8A4CF60B
:1011C000FF700440F08804432C82AC894EF6F31083
:1011D0000440B08831890843718908430443AC81D5
:1011E000AC8A4FF6FF400440B0890443AC8201A8AA
:1011F000FFF734FC1F48874202D1DDF810A001E060
:10120000DDF80CA0A88900F4004040B10AEBCA0048
:1012100000EB0A1031684900B0FBF1F807E00AEB77
:10122000CA0000EB0A1031688900B0FBF1F86420B5
:10123000B8FBF0F004012009642101FB1089A889A2
:1012400000F4004040B1322000EBC900B0FBF1F0E7
:1012500000F00700044308E0322000EB091064218D
:10126000B0FBF1F000F00F0004432C8106B0BDE8A4
:10127000F08700000038014001468888C0F308006C
:101280007047C1F308028280704700BFFEE700008C
:1012900010B50446312C03D125A02649086040E052
:1012A000322C03D124A0234908603AE0332C03D127
:1012B00022A02049086034E0342C03D120A01D492D
:1012C00008602EE0352C03D11EA01A49086028E0E2
:1012D000362C03D11CA01749086022E0372C03D11B
:1012E0001AA0144908601CE0622C03D118A011490F
:1012F000086016E0632C03D116A00E49086010E0C8
:10130000642C03D114A00B4908600AE0652C03D1BA
:1013100012A00849086004E0662C02D110A005491B
:101320000860032103480068FFF752FE10BD00006B
:101330005B315D001C0000205B325D005B375D00AF
:101340005B385D005B335D005B345D005B585D00C6
:101350005B4D5D005B4E5D005B425D005B565D007A
:101360005B415D0010B56FF00400FFF757FC0A48C1
:1013700000680A49B0FBF1F0094908700846007896
:1013800000EB4001C1EBC0104FF6FF7101EAC00055
:101390000449088010BD00000000002000127A00FF
:1013A00026000020280000200146114A12884A43E6
:1013B0004FF0E0235A6100229A611A46126942F006
:1013C00001021A6100BF4FF0E022106900F0010233
:1013D0001AB100F48032002AF5D04FF0E0221269F1
:1013E00022F001024FF0E0231A6100229A61704757
:1013F0002800002008B50024FFF7B4FF4FF4E06098
:10140000FFF700FBFFF7CCF9FFF71CFAFFF76CFAC8
:10141000FFF720F8FFF72AF9FFF7E8F870E000205F
:10142000FFF736F80446002C2DD0072C06D0082CE8
:101430000DD0092C14D00A2C24D11AE031A0324945
:101440000860032130480068FFF7C2FD1AE02FA0B2
:101450002D49086003212C480068FFF7B9FD11E011
:101460002BA029490860032127480068FFF7B0FD39
:1014700008E028A024490860032123480068FFF7FA
:10148000A7FD00BF02E00520FFF78EFF224800887D
:1014900000F40040A0B321480078312807D1012092
:1014A00000231A4619460090FFF754F825E01B4820
:1014B0000078322808D1012000231A460146009006
:1014C0001846FFF747F818E014480078332808D189
:1014D000012000230246194600901846FFF73AF80B
:1014E0000BE00E480078342807D101200346002283
:1014F000114600901046FFF72DF80020064908809D
:101500008DE700005B305D001C0000205B485D0043
:101510005B355D005B365D00180000204000002058
:101520004015000800000020400000006C01000889
:101530008015000840000020B8080000880100085D
:1015400000A24A04000000000000000001020304A1
:101550000607080900003700000000000000000036
:101560000000000001000000000000000000010277
:101570000304010203040607080902040608000028
:04000005080001CD21
:00000001FF
