:020000040800F2
:1000000048080020CD01000831070008BD030008A2
:10001000E105000887020008AB0E000800000000A0
:10002000000000000000000000000000D1080008EF
:100030008B02000800000000B9070008E50900086D
:10004000E7010008E7010008E7010008E7010008F0
:10005000E7010008E7010008E7010008E7010008E0
:10006000E7010008E7010008E7010008E7010008D0
:10007000E7010008E7010008E7010008E7010008C0
:10008000E7010008E7010008E7010008E7010008B0
:10009000E7010008E7010008E7010008E7010008A0
:1000A000E7010008E7010008E7010008E701000890
:1000B000490A0008E7010008E7010008E701000815
:1000C000E7010008E7010008E7010008E701000870
:1000D000E7010008ED0A0008910B0008D10B0008A9
:1000E000E7010008E7010008E7010008E701000850
:1000F000E7010008E7010008E7010008E701000840
:10010000E7010008E7010008E7010008E70100082F
:10011000E7010008E7010008E7010008E70100081F
:10012000E7010008E7010008E7010008E70100080F
:1001300000F002F800F03AF80AA090E8000C8244BF
:100140008344AAF10107DA4501D100F02FF8AFF29C
:10015000090EBAE80F0013F0010F18BFFB1A43F0A5
:1001600001031847B4150000D4150000103A24BF4D
:1001700078C878C1FAD8520724BF30C830C144BF0C
:1001800004680C607047000000230024002500264E
:10019000103A28BF78C1FBD8520728BF30C148BFEA
:1001A0000B6070471FB51FBD10B510BD00F031F8D2
:1001B0001146FFF7F7FF00F00DFF00F04FF803B412
:1001C000FFF7F2FF03BC00F057F800000948804732
:1001D00009480047FEE7FEE7FEE7FEE7FEE7FEE729
:1001E000FEE7FEE7FEE7FEE704480549054A064B41
:1001F00070470000E90900083101000848020020AA
:100200004808002048040020480400207047704738
:100210007047754600F02CF8AE4605006946534617
:1002200020F00700854618B020B5FFF7DDFFBDE8D8
:1002300020404FF000064FF000074FF000084FF04D
:10024000000B21F00701AC46ACE8C009ACE8C009DE
:10025000ACE8C009ACE8C0098D46704710B504464B
:10026000AFF300802046BDE81040FFF7A8BF0000B4
:1002700000487047E401002001491820ABBEFEE7AA
:1002800026000200704700BFFEE770472DE9F041ED
:10029000024600250026002000230024002791F8B4
:1002A00003C00CF00F0591F803C00CF0100CBCF16A
:1002B000000F03D091F802C04CEA050591F800C088
:1002C000BCF1000F31D0146800202BE04FF0010C7E
:1002D0000CFA00F3B1F800C00CEA03069E4220D1EC
:1002E00083004FF00F0C0CFA03F7BC4305FA03FC34
:1002F0004CEA040491F803C0BCF1280F06D14FF07A
:10030000010C0CFA00FCC2F814C00AE091F803C01A
:10031000BCF1480F05D14FF0010C0CFA00FCC2F8FB
:1003200010C0401C0828D1D31460B1F800C0BCF143
:10033000FF0F34DD546800202EE000F1080C4FF070
:10034000010808FA0CF3B1F800C00CEA03069E425B
:1003500021D183004FF00F0C0CFA03F7BC4305FAD0
:1003600003FC4CEA040491F803C0BCF1280F05D14A
:1003700000F1080C08FA0CF8C2F8148091F803C0D8
:10038000BCF1480F07D100F1080C4FF0010808FA42
:100390000CF8C2F81080401C0828CED35460BDE889
:1003A000F0810246002093680B400BB1012000E071
:1003B00000207047416170470161704700BFFEE750
:1003C00008B50121082000F009FA0320ADF800006B
:1003D00048208DF8030069460648FFF757FFC02004
:1003E000ADF8000048208DF8030069460248FFF789
:1003F0004DFF08BD000C01400008014010B5044647
:1004000014B101202B4908702A480078002835D003
:1004100002212948FFF7C5FF70B101212648FFF7E7
:10042000C0FF48B180212548FFF7BBFF20B1402124
:100430002248FFF7B6FF08BB0A2000F0A5FD002008
:100440001C49087002211C48FFF7ABFF08B90720C0
:1004500010BD01211848FFF7A4FF08B90820F7E7ED
:1004600080211648FFF79DFF08B90920F0E74021D9
:100470001248FFF796FFD8B90A20E9E702210E4893
:10048000FFF78FFF012813D101210B48FFF789FFE8
:1004900001280DD180210948FFF783FF012807D1EA
:1004A00040210648FFF77DFF012801D1014908706E
:1004B0000020CDE73A000020000C01400008014078
:1004C0002DE9F04104460D4616461F46DDF818801A
:1004D0002CB94FF480511E48FFF76CFF04E04FF435
:1004E00080511B48FFF768FF2DB94FF400511848A1
:1004F000FFF760FF04E04FF400511548FFF75CFF81
:100500002EB94FF480411248FFF754FF04E04FF436
:1005100080410F48FFF750FF2FB94FF400410C48BE
:10052000FFF748FF04E04FF400410948FFF744FF9C
:10053000B8F1000F05D14FF480510648FFF73AFF9C
:1005400004E04FF480510348FFF736FFBDE8F08127
:10055000000C01400008014008B50121082000F00E
:100560003DF94FF47040ADF8000010208DF8030005
:1005700003208DF8020069461748FFF787FE4FF405
:1005800080511548FFF716FF4FF400511248FFF74E
:1005900011FF4FF480411048FFF70CFF4FF400416A
:1005A0000D48FFF707FF0121042000F017F94FF471
:1005B0008050ADF8000010208DF8030003208DF866
:1005C000020069460548FFF761FE4FF48051034879
:1005D000FFF7F2FE08BD0000000C014000080140DA
:1005E00000BFFEE700B587B0012144F2040000F02F
:1005F000F5F84FF40070ADF8180003208DF81A00DC
:1006000018208DF81B0006A91D48FFF73FFE4FF488
:100610008060ADF8180004208DF81B0006A918486A
:10062000FFF734FE25208DF8040003208DF8050027
:100630008DF8060001208DF8070001A800F07AF877
:100640004FF4165002900020ADF80C00ADF80E00EB
:10065000ADF81000ADF814000C20ADF8120002A99E
:10066000084800F0ADFB012240F22551054800F09A
:1006700082FB0121034800F03BFB07B000BD0000F6
:10068000000801400038014000B587B0012188040E
:1006900000F094F80121082000F0A0F84FF48060E9
:1006A000ADF8180003208DF81A0018208DF81B00F3
:1006B00006A91D48FFF7EAFD4FF40060ADF81800E9
:1006C00004208DF81B0006A91748FFF7DFFD27203F
:1006D0008DF8040003208DF805008DF80600012038
:1006E0008DF8070001A800F025F84FF4E1300290E2
:1006F0000020ADF80C00ADF80E00ADF81000ADF81C
:1007000014000C20ADF8120002A9084800F058FBB4
:10071000012240F22551054800F02DFB012103483C
:1007200000F0E6FA07B000BD000C014000480040B0
:100730007047000070B5002100230F22C47804B375
:10074000154C246804F4E064C4F5E064210AC1F1A6
:100750000403CA40447804FA03F184781440214326
:1007600009010E4C0678A155047804F01F050124F8
:10077000AC4005786D11AD0005F1E025C5F80041EC
:1007800009E0047804F01F050124AC40044D06780C
:10079000761145F8264070BD0CED00E000E400E065
:1007A00080E100E002490143024A11607047000005
:1007B0000000FA050CED00E07047000029B1064A80
:1007C000D2690243044BDA6104E0034AD2698243EE
:1007D000014BDA61704700000010024029B1064A5F
:1007E00092690243044B9A6104E0034A926982438E
:1007F000014B9A61704700000010024030B50021A3
:100800000022002400232D4D6D6805F00C0121B15C
:10081000042905D0082923D105E0294D056022E0EF
:10082000274D05601FE0254D6D6805F47012234DBE
:100830006D6805F48034022505EB92421CB9214D08
:10084000554305600BE01D4D6D6805F400351DB185
:100850001C4D5543056002E0194D5543056002E00B
:10086000174D056000BF00BF144D6D6805F0F00125
:100870000909154D6B5C0568DD4045600F4D6D68DD
:1008800005F4E061090A104D6B5C4568DD40856048
:100890000A4D6D6805F46051C90A0B4D6B5C4568E3
:1008A000DD40C560054D6D6805F44041890B074D7D
:1008B0006B5CC568B5FBF3F5056130BD0010024007
:1008C00000127A0000093D00400000205000002086
:1008D000704710B500F002F810BD00000CB5002004
:1008E000019000903348006840F48030314908603E
:1008F00000BF3048006800F4003000900198401CB0
:100900000190009818B90198B0F5A06FF1D129486D
:10091000006800F4003010B10120009001E00020D8
:1009200000900098012843D12348006840F010004F
:10093000214908600846006820F003000860084666
:10094000006840F0020008601A4840681949486091
:100950000846406848600846406840F48060486047
:100960000846406820F47C1048600846406840F41F
:10097000E81048600846006840F08070086000BFDA
:100980000C48006800F000700028F9D00948406861
:1009900020F00300074948600846406840F0020024
:1009A000486000BF0348406800F00C000828F9D1F7
:1009B0000CBD00000010024000200240042808D1B5
:1009C0004FF0E021096941F004014FF0E02211618C
:1009D00007E04FF0E021096921F004014FF0E02227
:1009E000116170477047000010B51348006840F06F
:1009F00001001149086008464068104908400E4946
:100A00004860084600680E4908400B4908600846DF
:100A1000006820F4802008600846406820F4FE004A
:100A200048604FF41F008860FFF753FF4FF00060ED
:100A30000449086010BD0000001002400000FFF8EB
:100A4000FFFFF6FE08ED00E010B50121880700F079
:100A50003CF800B30121880700F034F81549164826
:100A6000006800F0A9FD03D8312000F021FA20E051
:100A700012491148006800F01EFE03D8322000F031
:100A800017FA16E00B490E48006800F095FD03D8F0
:100A9000362000F00DFA0CE008490948006800F023
:100AA0000AFE03D8352000F003FA02E0372000F0F8
:100AB000FFF910BD000020C22800002000002042E5
:100AC0002C000020CA430282704730B50246002045
:100AD00000230024158A05EA0103958905EA01042B
:100AE00013B10CB1012000E0002030BD10B540F280
:100AF0002551184800F015F950B3164800F0CCF90C
:100B0000C4B21548008800F4004008BB5B2C06D135
:100B10001148008840F480400F49088018E00E48D2
:100B2000008800F4804098B15D2C06D10A48008806
:100B300040F40040084908800AE007480088C0F3F4
:100B40000D0006490C5404480088401C02490880E6
:100B500010BD0000003801401400002054000020A7
:100B600070B505460E46002400BF0CE0295D07481D
:100B700000F097F900BF4021044800F0C5F80128B3
:100B8000F9D1601C84B2B442F0DB70BD0038014082
:100B900010B540F225510C4800F0C3F890B10A4856
:100BA00000F07AF9C4B22146074800F07AF9302CF7
:100BB00004D120210548FFF7FDFB03E02021034875
:100BC000FFF7FAFB10BD00000044004000080140A0
:100BD0002DE9F04140F225513B4800F0A2F80028F1
:100BE0006FD0394800F058F9C1B23848027800781F
:100BF000401C364B1870364881540078AA2804D01F
:100C000000201946087032490870304800780828DA
:100C100057D12F48C079552850D12D4880782C497C
:100C2000497840EA012000B22A4908802848007922
:100C30002749C97840EA012000B2274908802448A2
:100C400080792349497940EA012000B2234908808C
:100C50002048B0F9000000F097FC804600F05CFCF2
:100C6000064600221E4B00F0ABFA044600F076FA6E
:100C70001C4908601848B0F9000000F085FC804667
:100C800000F04AFC06460022154B00F099FA044693
:100C900000F064FA144908601048B0F9000000F050
:100CA00073FC804600F038FC064600220C4B00F036
:100CB00087FA044600F052FA0C4908600020034904
:100CC0000870BDE8F08100000048004031000020BD
:100CD000320000201E000020200000202200002002
:100CE0000000594024000020280000202C00002093
:100CF00021B1828942F40052828104E082894DF65A
:100D0000FF731A408281704702460020B1F5007FD0
:100D100000D100BF13880B400BB1012000E0002080
:100D2000704770B50246002400230025002040F6DD
:100D30006A16B14200D100BFC1F3421501F01F0392
:100D4000012606FA03F3012D02D19689334006E00D
:100D5000022D02D1168A334001E0968A33400C12EC
:100D6000012606FA04F41688344013B10CB10120B0
:100D700000E0002070BDF0B50346002400260025E9
:100D8000002040F66A17B94200D100BF1846C1F3EF
:100D9000421401F01F06012707FA06F5012C01D1C4
:100DA0000C3004E0022C01D1103000E014301AB1F4
:100DB00007682F43076002E00768AF430760F0BD94
:100DC0002DE9F04786B005460E460024A24600BF36
:100DD000A1460027B08900B100BF2F462C8A4CF6EF
:100DE000FF700440F08804432C82AC894EF6F31067
:100DF0000440B08831890843718908430443AC81B9
:100E0000AC8A4FF6FF400440B0890443AC8201A88D
:100E1000FFF7F4FC1F48874202D1DDF810A001E083
:100E2000DDF80CA0A88900F4004040B10AEBCA002C
:100E300000EB0A1031684900B0FBF1F807E00AEB5B
:100E4000CA0000EB0A1031688900B0FBF1F8642099
:100E5000B8FBF0F004012009642101FB1089A88986
:100E600000F4004040B1322000EBC900B0FBF1F0CB
:100E700000F00700044308E0322000EB0910642171
:100E8000B0FBF1F000F00F0004432C8106B0BDE888
:100E9000F08700000038014001468888C0F3080050
:100EA0007047C1F308028280704700BFFEE7000070
:100EB00010B50446312C03D119A01A49086028E066
:100EC000322C03D118A01749086022E0332C03D13B
:100ED00016A0144908601CE0342C03D114A0114959
:100EE000086016E0352C03D112A00E49086010E00E
:100EF000362C03D110A00B4908600AE0372C03D12F
:100F00000EA00849086004E0662C02D10CA0054937
:100F10000860032103480068FFF722FE10BD0000AF
:100F20005B315D00180000205B325D005B375D00C7
:100F30005B385D005B335D005B345D005B585D00DA
:100F40005B415D0010B56FF00400FFF737FD0A4804
:100F500000680A49B0FBF1F00949087008460078BA
:100F600000EB4001C1EBC0104FF6FF7101EAC00079
:100F70000449088010BD00000000002000127A0023
:100F80003C0000203E0000200146114A12884A43DE
:100F90004FF0E0235A6100229A611A46126942F02A
:100FA00001021A6100BF4FF0E022106900F0010257
:100FB0001AB100F48032002AF5D04FF0E022126915
:100FC00022F001024FF0E0231A6100229A6170477B
:100FD0003E00002008B50024FFF7B4FF4FF4E060A6
:100FE000FFF7E0FBFFF7FEFAFFF74EFBFFF7E8F92C
:100FF000FFF7B2FA9BE00020FFF700FA0446002C4E
:101000002DD0072C06D0082C0DD0092C14D00A2C7A
:1010100024D11AE046A047490860032145480068EA
:10102000FFF79EFD1AE044A04249086003214148B1
:101030000068FFF795FD11E040A03E4908600321DC
:101040003C480068FFF78CFD08E03DA03949086086
:10105000032138480068FFF783FD00BF02E0052048
:10106000FFF792FF37493848006800F0A5FA03D827
:101070003120FFF71DFF20E034493348006800F0BD
:101080001AFB03D83220FFF713FF16E02D49304832
:10109000006800F091FA03D83620FFF709FF0CE052
:1010A0002A492B48006800F006FB03D83520FFF7DB
:1010B000FFFE02E03720FFF7FBFE2648008800F421
:1010C0000040A0B324480078312807D10120002334
:1010D0001A4619460090FFF7F3F925E01E480078FC
:1010E000322808D1012000231A46014600901846F4
:1010F000FFF7E6F918E018480078332808D10120F6
:1011000000230246194600901846FFF7D9F90BE074
:1011100011480078342807D10120034600221146E7
:1011200000901046FFF7CCF900200A49088062E7DA
:101130005B305D00180000205B4D5D005B355D009D
:101140005B365D00000020C2280000200000204225
:101150002C000020140000205400002021F0004248
:10116000A2F16052B2F5801F01F0004328BFD2F116
:101170007F6C0BD95FEA001C43EAC20242EB50705D
:1011800018BF704728BF20F001007047B2F5801FDC
:10119000BCBF184670474FEA410C1CF5001F02D235
:1011A000084600F083BA70B500F062F900000089CB
:1011B000FFF7F6BF4FF00040A0F580007047000039
:1011C0002DE9C04130B4DFF8A0C23CEA111418BFC9
:1011D0003CEA131400F0EC8081EA03051CEA1114C8
:1011E00044EAD57418BF1CEA131500F0C780A4EBBD
:1011F00005044FF0004545EAC12145EAC32341EA11
:10120000505143EA525304F17F74994204F500347B
:101210004FEAC0204FEAC22208BF904200F09C80F3
:101220004FEA13650FF24016765D4FEA134506FB51
:1012300005F7C7F1807706FB07F74FEAD737A7FB1B
:1012400003687642C8F58038A7FB06CE38BFA8F100
:10125000010807FB08E64FF0000EA6FB028CE6FB38
:1012600003CEDCF1000CCEF1004E38BFAEF1010E22
:10127000A6FB0C584FF000074FF00005E6FB0E8769
:10128000A1FB08C6A0FB07CE16EB0E0645F1000534
:10129000E1FB076515F1E04E7EBFA4F580345FEAFF
:1012A00046066D4116F1800745F100054FEA172704
:1012B0004FEA066647EA0567A6F1DE46B6F1805FAB
:1012C0004FEA15251FD9384624F0010C05EBC471EF
:1012D000BCF1FE6F01EB0C1102D8F0BCBDE800813F
:1012E00024425CBF01F5801E9EEAC47F02D4F0BC9C
:1012F000BDE80081244238D4F0BCA1F1C041BDE872
:10130000004100F003B94FEAD22242EA43524FEAC9
:10131000D323A7FB02864FEAD02040EA415007FBC7
:1013200003661EEA0E0F4FEAD12105FB026658BF85
:10133000A6EB0056B6EB00564FEA520E4EEAC37EBD
:1013400018EB0E0E56EB530EBDD518EB02085E419E
:101350007F1C55F10005B6E74FF480154FF00007EC
:101360004FF000064FF00008ADE7F0BC4FF0000072
:1013700001F1C04101F00041BDE8008111EA0C1FFC
:101380000CEA131500D00CE013EA0C1F00F02580C6
:101390004FF00000F0BC81EA030101F00041BDE81C
:1013A0000081F0BCBDE8004181EA030100F0AEB865
:1013B000F0BCBDE8004170B500F05AF8097EFC3E73
:1013C00000F007B881EA03014FF0000001F000418E
:1013D000704781EA030100F099B8F0BCBDE8004114
:1013E0004FF0000021497047FFFDFBF9F7F5F4F2DB
:1013F000F0EEEDEBE9E8E6E4E3E1E0DEDDDBDAD8B0
:10140000D7D5D4D3D1D0CFCDCCCBCAC8C7C6C5C40D
:10141000C2C1C0BFBEBDBCBBBAB9B8B7B6B5B4B324
:10142000B2B1B0AFAEADACABAAA9A8A8A7A6A5A40F
:10143000A3A3A2A1A09F9F9E9D9C9C9B9A999998D3
:101440009797969595949393929191908F8F8E8E76
:101450008D8C8C8B8B8A8989888887878685858403
:1014600084838382828181800000FF070000F87FEF
:101470000EF1020E2EF0030E5EF8046B364205D418
:10148000012A43EB030515F5001F12D8012841EB93
:10149000010C1CF5001F0CD80ED14FEAD17C15F5BC
:1014A000001F0CEB4C0C0CF1020C08BF4CEBD37C76
:1014B00004E04FF0080C01E04FEAD37C0CEB4C0544
:1014C00026FA05F606F00706B6F1040C06D20EEB76
:1014D000860CBDE870404CF0010C6047DFE80CF072
:1014E000090B02024FF000414FF00000A1F500216E
:1014F00070BD19461046012851EB010418BFD4F500
:10150000001484BF002001F0004170BD0808A0F560
:1015100000114FEA3101704743004FEAD30C4FEA04
:101520003C0C43401FBF40070CF1605113F0FE4FCD
:1015300070471CF0006F03D100200CF00041704791
:101540000CF0004343EA507010B540EACC0000F0C4
:1015500067F800BF000000924FEA0001FFF7D6BF16
:101560004FF000414FF00000A1F5002170474010FE
:1015700058BFC0F14040491058BFC1F140418142BD
:10158000EFF300807047000010F0004148BF404278
:10159000B0FA80F310FA03F2C3F19D030BD051EAC5
:1015A000C35101EB1220530638BF704700F1010010
:1015B00008BF20F00100704750EA010C00F11380D1
:1015C0001CF5000F58BFBCF5000F01D488427047CE
:1015D00007D710F5000F58BF11F5000F15D488423A
:1015E0007047894270471CF5000F04D5BCF5000F09
:1015F000F7D5814270474FF0807C1CEB400F38BF1D
:101600001CEB410F01D28142704710B500F008F881
:10161000922449004FF000504FF08051FFF7A7BFD0
:101620000EF1020E2EF0030E5EF8044B244204D499
:101630004FEA4102B2F17F4F11D84FEA4003B3F1B4
:101640007F4F0CD80ED14FEAD07CB2F17F4F0CEB1C
:101650004C0C0CF1020C08BF4CEBD17C04E04FF0B9
:10166000080C01E04FEAD17C0CEB4C0324FA03F4A4
:1016700004F00704B4F1040C06D20EEB840CBDE8B0
:1016800010404CF0010C6047DFE80CF00708020244
:101690004FF00040A0F5800010BD0846420018BF82
:1016A000D2F1807288BF00F0004010BDFF2141EAF6
:1016B000D050C005704751EA000C00F113801CF5B2
:1016C000000F58BFBCF5000F01D48142704707D707
:1016D00011F5000F58BF10F5000F15D48142704767
:1016E000894270471CF5000F04D5BCF5000FF7D5F3
:1016F000884270474FF0807C1CEB410F38BF1CEBD9
:10170000400F01D28842704780EA010081EA00015F
:1017100080EA0100FFF779BF3817000800000020B9
:10172000540000006C0100088C17000854000020D1
:10173000F40700008801000800A24A04000000002D
:101740000000000001020304060708090000000071
:101750000000000000000000000000000000000089
:101760000000000000000000000000000000000079
:10177000000001000000000000000000010203045E
:0C17800001020304060708090204060821
:04000005080001CD21
:00000001FF
