:1007E0005B305D005B315D005B325D005B335D0063
:1007F0005B345D005B355D005B365D005B375D0043
:100800005B385D005B395D005B615D005B625D00D4
:100810005B635D005B645D005B655D005B665D0066
:080820005B725D005B705D007E
:0609D100011C00011B00E7
:10079700E4F50912099912098112086C12091180EE
:1007A7002C781CE61460FA24F1601824DF60F22428
:1007B700317020781C7601120748EF70E4781C76B8
:1007C7003180DE1209F2781EEFF612030BE4781C73
:0907D700F680CEE4781CF680C81F
:10099900B2C21209B9B2C21209B9B2C21209B9B2C4
:0209A900C22268
:100981007580FF7590FF75A0FF75B0FF75C0FFC240
:08099100C3D289D2A8D2AF2223
:0A09C60000007F057E49DEFEDFFC25
:0109D0002204
:08095D008F148E138D128C1112
:10096500E4F515F516F517F518781174FF12021F41
:0B097500EC4D4E4F60051209C680EEED
:010980002254
:0C09B9007F117ED07D1BDDFEDEFCDFFA2E
:0109C500220F
:030003000208AD43
:1008AD00C0E0C0F0C083C082C0D075D000C000C011
:1008BD0001C002C003C004C005C006C00712053543
:1008CD00D007D006D005D004D003D002D001D0007F
:0B08DD00D0D0D082D083D0F0D0E03229
:10030B008F0AE50A700E751B01C2C27BFF7A077953
:10031B00E00203F8E51B640160030203F2F51BD254
:10032B00C2E50A14B40F0040030203EA90034575BB
:10033B00F003A4C58325F0C5837302037202037A0D
:10034B0002038202038A02039202039A0203A202AD
:10035B0003AA0203B20203BA0203C20203CA0203D4
:10036B00D20203DA0203E27BFF7A0779E4807E7B19
:10037B00FF7A0779E880767BFF7A0779EC806E7BD2
:10038B00FF7A0779F080667BFF7A0779F4805E7BD2
:10039B00FF7A0779F880567BFF7A0779FC804E7BD2
:1003AB00FF7A08790080467BFF7A087904803E7BD0
:1003BB00FF7A08790880367BFF7A08790C802E7BD0
:1003CB00FF7A08791080267BFF7A087914801E7BD0
:1003DB00FF7A08791880167BFF7A08791C800E7BD0
:1003EB00FF7A08792080067BFF7A08792412093876
:0103FB0022DF
:1000060079696E206C616E670000000000000000D8
:100016000000000000000000000000000000716900
:10002600616E206A696E000000000000000000009A
:10003600000000000000000000000000686F75204E
:100046007475690000000000000000000000000058
:10005600000000000000000000007A756F2078693B
:10006600616E6720796920646F6E6700000000008A
:100076000000000000000000796F75207869616E4D
:100086006720796920646F6E670000000000000039
:100096000000000000007A756F207A6875616E00B6
:1000A600000000000000000000000000000000004A
:1000B60000000000796F75207A6875616E00000097
:1000C600000000000000000000000000000000002A
:1000D60000007A68616E206C690000000000000074
:1000E600000000000000000000000000000000000A
:1000F60064756E2078696100000000000000000051
:10010600000000000000000000000000000079610F
:100116006E6720746F75000000000000000000008C
:100126000000000000000000000000006469207468
:100136006F750000000000000000000000000000D5
:1001460000000000000000000000776F2073686F59
:100156007500000000000000000000000000000024
:1001660000000000000000007975616E20646920BF
:1001760074612062750000000000000000000000AD
:100186000000000000007A756F20796F7520796194
:100196006F2062616900000000000000000000009E
:1001A600000000007169616E20686F752079616FCB
:1001B60020626169000000000000000000000000ED
:1001C600000073616E2062750000000000000000F0
:1001D6000000000000000000000000000000000019
:1001E600000102030405060708090A0B0C0D0E0F91
:10086C00D2B57F057E007D007C0012095DC2B57F8C
:10087C00057E007D007C0012095DD2B57F057E00EF
:10088C007D007C0012095DC2A17F057E007D007C8D
:10089C000012095DD2A17F057E007D007C0002095B
:0108AC005DEE
:100499007F061209E77D357F171209DC7F0A7E0086
:1004A9007D007C0012095D7F061209E77D037F89C3
:1004B9001209DC7F057E007D007C0012095D7D4309
:1004C9007FCF1209DC7F057E007D007C0012095D6B
:1004D9007D027FCB1209DC7D0A7F111209DCE4FD64
:1004E9007F1E1209DC7D3F7F191209DC7D487F1BC5
:1004F9001209DC7D1F7F1D1209DC7F0A7E007D0049
:100509007C0012095D7D047FCD1209DC7F057E0028
:100519007D007C0012095DE4FD7FB91209DC7D4F85
:0C0529007FCF1209DC7DFF7F6F0209DC30
:1006E900120499E4FD7FBD1209DC7D487F171209C8
:1006F900DC7F0A7E007D007C0012095D7D807F3CE5
:100709001209DC7D077F3E1209DC7DFF7F38120963
:10071900DC7D077F3A1209DCE4FD7F401209DC7DAC
:10072900087F421209DCE4FD7F441209DC7D087F61
:0F073900461209DC7F017E007D007C0002095D15
:10053500E4F508C2A87F2B1209E7781DA607E4FD9C
:100545007F291209DCE4FD7F021209DC781DE63003
:10055500E42D7FB21209E7EF642170237FBF1209F2
:10056500E7BF351B7FBA1209E78F08E508D394006A
:10057500400DE508D394045006781C761080047865
:100585001C7611E4FD7F2B1209DCE4FD7F1C1209AA
:10059500DCE4FD7F291209DCE4FD7F021209DCE4BD
:1005A500FD7F2B1209DCE4FD7FBA1209DCE4FD7F37
:1005B500BC1209DC7D017F081209DCE4FD7F08120D
:0405C50009DCD2A8D3
:0105C900220F
:10074800E4F50AF50BF50A1209F87F327E007D0000
:100758007C0012095D1203FCEF700280117F0A7E93
:10076800007D007C0012095D1205CAEF70101208A6
:100778006C7F327E007D007C0012095D8005750B60
:0E078800018009050AE50AC3940540BBAF0BCA
:010796002240
:1008E800E4F510F50F7FB21209E7BF210575100175
:1008F80080147F0A7E007D007C0012095D050FE5EB
:080908000FC3940A40DFAF1099
:0109100022C4
:0309F8000206E90B
:1005CA00C2A87D557F351209DC7D097F1C1209DC22
:1005DA007D207FBD1209DC7D017F081209DC7F01C5
:1005EA007E007D007C0012095DE4FD7F081209DCB3
:1005FA007F017E007D007C0012095D1208E8EF7021
:10060A0002FF227D0B7F1C1209DC7DFF7FB21209DB
:10061A00DC7F017E007D007C0012095D7D067F374C
:10062A001209DC7F017E007D007C0012095D7D06D7
:10063A007F371209DC7F057E007D007C0012095D90
:10064A007D107F291209DCE4FD7FBD1209DCD2A8E6
:03065A007F0122FB
:1003FC00750D01E4F50C1208E8EF7005F50D02041B
:10040C0096E50C9001E693FD7FC11209DCE4FD7FBB
:10041C00C31209DC7D047F081209DC7F017E007D9C
:10042C00007C0012095DE4FD7F081209DC7F017E6F
:10043C00007D007C0012095DE4F50E75F01EE50CE4
:10044C00A42406F582E5F03400F583E582250EF54B
:10045C0082E43583F583E493FD600E7F051209DC9D
:10046C00050EE50EC3941E40D2AD0E7FB91209DC09
:10047C007DFF7FB21209DC7D047F371209DC050C8D
:0C048C00E50CC394105003020402AF0DF5
:010498002241
:0609F2007FC51209E72297
:0B09DC00908100EFF0908000EDF02211
:0B09E700908100EFF0908000E0FF2204
:0409D700021925805C
:10091100759850758920AE19AF1AAB07AA06E4F98C
:10092100F8FF7EE1FDFC12082812020F8F8B8F8DDC
:07093100D28ED2ACD2AF223E
:0E09AB00C2ACC2998F993099FDC299D2AC228C
:100938008B0B8A0C890DAB0BAA0CA90D1201F66062
:1009480013050DE50D7002050C14F91201F6FF12DE
:0509580009AB80E22262
:0300000002065D98
:0C065D00787FE4F6D8FD75811E0206A42B
:1001F600BB010689828A83E0225002E722BBFE0207
:09020600E32289828A83E4932239
:10082800C2D5E830E70FB2D5E4C39BFBE49AFAE4FB
:1008380099F9E498F8EC30E717B2D512085E12027D
:1008480079E4C39BFBE49AFAE499F9E498F8800305
:1008580012027930D50DE4C39FFFE49EFEE49DFDAE
:04086800E49CFC22EE
:0E020F00C3E49FFFE49EFEE49DFDE49CFC2200
:10021D007401FF3395E0FEFDFC080808E6CF2FF6CC
:10022D0018E6CE3EF618E6CD3DF618E6CC3CF622A5
:10066900020797E493A3F8E493A34003F68001F209
:1006790008DFF48029E493A3F85407240CC8C33392
:10068900C4540F4420C8834004F456800146F6DF61
:10069900E4800B01020408102040809009D1E47E17
:1006A900019360BCA3FF543F30E509541FFEE49356
:1006B900A360010ECF54C025E060A840B8E493A31D
:1006C900FAE493A3F8E493A3C8C582C8CAC583CA48
:1006D900F0A3C8C582C8CAC583CADFE9DEE780BE00
:0109DB00001B
:10023D0075F008758200EF2FFFEE33FECD33CDCC78
:10024D0033CCC58233C5829BED9AEC99E5829840FB
:10025D000CF582EE9BFEED9AFDEC99FC0FD5F0D6D8
:10026D00E4CEFBE4CDFAE4CCF9A88222B800C1B902
:10027D000059BA002DEC8BF084CFCECDFCE5F0CB40
:10028D00F97818EF2FFFEE33FEED33FDEC33FCEB79
:10029D0033FB10D703994004EB99FB0FD8E5E4F934
:1002AD00FA227818EF2FFFEE33FEED33FDEC33FC21
:1002BD00C933C910D7059BE99A4007EC9BFCE99A15
:1002CD00F90FD8E0E4C9FAE4CCFB2275F010EF2F5A
:1002DD00FFEE33FEED33FDCC33CCC833C810D7075A
:1002ED009BEC9AE899400AED9BFDEC9AFCE899F895
:0E02FD000FD5F0DAE4CDFBE4CCFAE4C8F92228
:00000001FF
